{
  "_format": "hh-sol-artifact-1",
  "contractName": "ElectoralManager",
  "sourceName": "contracts/ElectoralManager.sol",
  "abi": [
    {
      "inputs": [],
      "stateMutability": "nonpayable",
      "type": "constructor"
    },
    {
      "anonymous": false,
      "inputs": [
        {
          "indexed": true,
          "internalType": "address",
          "name": "from",
          "type": "address"
        },
        {
          "indexed": true,
          "internalType": "uint256",
          "name": "tokenId",
          "type": "uint256"
        }
      ],
      "name": "ApprovedPromise",
      "type": "event"
    },
    {
      "anonymous": false,
      "inputs": [
        {
          "indexed": true,
          "internalType": "address",
          "name": "from",
          "type": "address"
        },
        {
          "indexed": true,
          "internalType": "uint256",
          "name": "tokenId",
          "type": "uint256"
        }
      ],
      "name": "CreatedPromise",
      "type": "event"
    },
    {
      "anonymous": false,
      "inputs": [
        {
          "indexed": true,
          "internalType": "address",
          "name": "owner",
          "type": "address"
        }
      ],
      "name": "NewPromiser",
      "type": "event"
    },
    {
      "inputs": [
        {
          "internalType": "address",
          "name": "_owner",
          "type": "address"
        }
      ],
      "name": "balanceOf",
      "outputs": [
        {
          "internalType": "uint256",
          "name": "balance",
          "type": "uint256"
        }
      ],
      "stateMutability": "view",
      "type": "function"
    },
    {
      "inputs": [],
      "name": "baseURI",
      "outputs": [
        {
          "internalType": "string",
          "name": "",
          "type": "string"
        }
      ],
      "stateMutability": "view",
      "type": "function"
    },
    {
      "inputs": [],
      "name": "checkMyIdentifier",
      "outputs": [
        {
          "internalType": "uint256",
          "name": "",
          "type": "uint256"
        }
      ],
      "stateMutability": "view",
      "type": "function"
    },
    {
      "inputs": [],
      "name": "counterElectoralPromises",
      "outputs": [
        {
          "internalType": "uint256",
          "name": "",
          "type": "uint256"
        }
      ],
      "stateMutability": "view",
      "type": "function"
    },
    {
      "inputs": [],
      "name": "counterPromisers",
      "outputs": [
        {
          "internalType": "uint256",
          "name": "",
          "type": "uint256"
        }
      ],
      "stateMutability": "view",
      "type": "function"
    },
    {
      "inputs": [
        {
          "internalType": "string",
          "name": "_tokenURI",
          "type": "string"
        },
        {
          "internalType": "bool",
          "name": "_isObligatory",
          "type": "bool"
        }
      ],
      "name": "createElectoralPromise",
      "outputs": [
        {
          "internalType": "uint256",
          "name": "",
          "type": "uint256"
        }
      ],
      "stateMutability": "nonpayable",
      "type": "function"
    },
    {
      "inputs": [],
      "name": "getAllPromises",
      "outputs": [
        {
          "components": [
            {
              "internalType": "uint256",
              "name": "id",
              "type": "uint256"
            },
            {
              "internalType": "uint256",
              "name": "created",
              "type": "uint256"
            },
            {
              "internalType": "uint256",
              "name": "dateApproved",
              "type": "uint256"
            },
            {
              "internalType": "uint256",
              "name": "idAuthor",
              "type": "uint256"
            },
            {
              "internalType": "bool",
              "name": "isObligatory",
              "type": "bool"
            },
            {
              "internalType": "string",
              "name": "tokenUri",
              "type": "string"
            },
            {
              "internalType": "string",
              "name": "nameAuthor",
              "type": "string"
            },
            {
              "internalType": "string",
              "name": "namePoliticalParty",
              "type": "string"
            }
          ],
          "internalType": "struct DataInfo.DataPromise[]",
          "name": "",
          "type": "tuple[]"
        }
      ],
      "stateMutability": "view",
      "type": "function"
    },
    {
      "inputs": [
        {
          "internalType": "uint256",
          "name": "",
          "type": "uint256"
        }
      ],
      "name": "listElectoralPromises",
      "outputs": [
        {
          "internalType": "uint256",
          "name": "id",
          "type": "uint256"
        },
        {
          "internalType": "uint256",
          "name": "created",
          "type": "uint256"
        },
        {
          "internalType": "uint256",
          "name": "dateApproved",
          "type": "uint256"
        },
        {
          "internalType": "uint256",
          "name": "idAuthor",
          "type": "uint256"
        },
        {
          "internalType": "bool",
          "name": "isObligatory",
          "type": "bool"
        },
        {
          "internalType": "string",
          "name": "tokenUri",
          "type": "string"
        },
        {
          "internalType": "string",
          "name": "nameAuthor",
          "type": "string"
        },
        {
          "internalType": "string",
          "name": "namePoliticalParty",
          "type": "string"
        }
      ],
      "stateMutability": "view",
      "type": "function"
    },
    {
      "inputs": [
        {
          "internalType": "address",
          "name": "",
          "type": "address"
        }
      ],
      "name": "listPromisers",
      "outputs": [
        {
          "internalType": "uint256",
          "name": "idAuthor",
          "type": "uint256"
        },
        {
          "internalType": "bool",
          "name": "isPoliticalParty",
          "type": "bool"
        },
        {
          "internalType": "string",
          "name": "completeName",
          "type": "string"
        },
        {
          "internalType": "string",
          "name": "namePoliticalParty",
          "type": "string"
        }
      ],
      "stateMutability": "view",
      "type": "function"
    },
    {
      "inputs": [],
      "name": "name",
      "outputs": [
        {
          "internalType": "string",
          "name": "",
          "type": "string"
        }
      ],
      "stateMutability": "view",
      "type": "function"
    },
    {
      "inputs": [
        {
          "internalType": "uint256",
          "name": "tokenId",
          "type": "uint256"
        }
      ],
      "name": "ownerOf",
      "outputs": [
        {
          "internalType": "address",
          "name": "owner",
          "type": "address"
        }
      ],
      "stateMutability": "view",
      "type": "function"
    },
    {
      "inputs": [
        {
          "internalType": "string",
          "name": "_completeName",
          "type": "string"
        },
        {
          "internalType": "string",
          "name": "_namePoliticalParty",
          "type": "string"
        },
        {
          "internalType": "bool",
          "name": "_isPoliticalParty",
          "type": "bool"
        }
      ],
      "name": "registerUser",
      "outputs": [
        {
          "internalType": "uint256",
          "name": "",
          "type": "uint256"
        }
      ],
      "stateMutability": "nonpayable",
      "type": "function"
    },
    {
      "inputs": [],
      "name": "symbol",
      "outputs": [
        {
          "internalType": "string",
          "name": "",
          "type": "string"
        }
      ],
      "stateMutability": "view",
      "type": "function"
    },
    {
      "inputs": [
        {
          "internalType": "uint256",
          "name": "tokenId",
          "type": "uint256"
        }
      ],
      "name": "tokenURI",
      "outputs": [
        {
          "internalType": "string",
          "name": "",
          "type": "string"
        }
      ],
      "stateMutability": "view",
      "type": "function"
    }
  ],
  "bytecode": "0x60806040523480156200001157600080fd5b506040518060400160405280600a81526020017f466f6f6c4d654f6e6365000000000000000000000000000000000000000000008152506040518060400160405280600381526020017f464d4f00000000000000000000000000000000000000000000000000000000008152506040518060400160405280600781526020017f697066733a2f2f000000000000000000000000000000000000000000000000008152508260009081620000c591906200037d565b508160019081620000d791906200037d565b508060029081620000e991906200037d565b505050506000600681905550600160078190555062000464565b600081519050919050565b7f4e487b7100000000000000000000000000000000000000000000000000000000600052604160045260246000fd5b7f4e487b7100000000000000000000000000000000000000000000000000000000600052602260045260246000fd5b600060028204905060018216806200018557607f821691505b6020821081036200019b576200019a6200013d565b5b50919050565b60008190508160005260206000209050919050565b60006020601f8301049050919050565b600082821b905092915050565b600060088302620002057fffffffffffffffffffffffffffffffffffffffffffffffffffffffffffffffff82620001c6565b620002118683620001c6565b95508019841693508086168417925050509392505050565b6000819050919050565b6000819050919050565b60006200025e62000258620002528462000229565b62000233565b62000229565b9050919050565b6000819050919050565b6200027a836200023d565b62000292620002898262000265565b848454620001d3565b825550505050565b600090565b620002a96200029a565b620002b68184846200026f565b505050565b5b81811015620002de57620002d26000826200029f565b600181019050620002bc565b5050565b601f8211156200032d57620002f781620001a1565b6200030284620001b6565b8101602085101562000312578190505b6200032a6200032185620001b6565b830182620002bb565b50505b505050565b600082821c905092915050565b6000620003526000198460080262000332565b1980831691505092915050565b60006200036d83836200033f565b9150826002028217905092915050565b620003888262000103565b67ffffffffffffffff811115620003a457620003a36200010e565b5b620003b082546200016c565b620003bd828285620002e2565b600060209050601f831160018114620003f55760008415620003e0578287015190505b620003ec85826200035f565b8655506200045c565b601f1984166200040586620001a1565b60005b828110156200042f5784890151825560018201915060208501945060208101905062000408565b868310156200044f57848901516200044b601f8916826200033f565b8355505b6001600288020188555050505b505050505050565b6126a280620004746000396000f3fe608060405234801561001057600080fd5b50600436106100ea5760003560e01c80636352211e1161008c5780637a586b9d116100665780637a586b9d1461029157806395d89b41146102af578063a9d02272146102cd578063c87b56dd146102eb576100ea565b80636352211e146102135780636c0360eb1461024357806370a0823114610261576100ea565b8063181f51c6116100c8578063181f51c61461016257806322cc78d4146101925780635dde5310146101c25780635e2a67a9146101e0576100ea565b8063043d9b24146100ef57806306fdde031461012657806314a81c1414610144575b600080fd5b61010960048036038101906101049190611629565b61031b565b60405161011d989796959493929190611710565b60405180910390f35b61012e610518565b60405161013b91906117a3565b60405180910390f35b61014c6105aa565b60405161015991906117c5565b60405180910390f35b61017c60048036038101906101779190611941565b6105f4565b60405161018991906117c5565b60405180910390f35b6101ac60048036038101906101a791906119cc565b61076c565b6040516101b991906117c5565b60405180910390f35b6101ca610b0f565b6040516101d791906117c5565b60405180910390f35b6101fa60048036038101906101f59190611a86565b610b15565b60405161020a9493929190611ab3565b60405180910390f35b61022d60048036038101906102289190611629565b610c62565b60405161023a9190611b15565b60405180910390f35b61024b610d13565b60405161025891906117a3565b60405180910390f35b61027b60048036038101906102769190611a86565b610da5565b60405161028891906117c5565b60405180910390f35b610299610e5c565b6040516102a69190611d18565b60405180910390f35b6102b76110b5565b6040516102c491906117a3565b60405180910390f35b6102d5611147565b6040516102e291906117c5565b60405180910390f35b61030560048036038101906103009190611629565b61114d565b60405161031291906117a3565b60405180910390f35b6008818154811061032b57600080fd5b90600052602060002090600802016000915090508060000154908060010154908060020154908060030154908060040160009054906101000a900460ff169080600501805461037990611d69565b80601f01602080910402602001604051908101604052809291908181526020018280546103a590611d69565b80156103f25780601f106103c7576101008083540402835291602001916103f2565b820191906000526020600020905b8154815290600101906020018083116103d557829003601f168201915b50505050509080600601805461040790611d69565b80601f016020809104026020016040519081016040528092919081815260200182805461043390611d69565b80156104805780601f1061045557610100808354040283529160200191610480565b820191906000526020600020905b81548152906001019060200180831161046357829003601f168201915b50505050509080600701805461049590611d69565b80601f01602080910402602001604051908101604052809291908181526020018280546104c190611d69565b801561050e5780601f106104e35761010080835404028352916020019161050e565b820191906000526020600020905b8154815290600101906020018083116104f157829003601f168201915b5050505050905088565b60606000805461052790611d69565b80601f016020809104026020016040519081016040528092919081815260200182805461055390611d69565b80156105a05780601f10610575576101008083540402835291602001916105a0565b820191906000526020600020905b81548152906001019060200180831161058357829003601f168201915b5050505050905090565b6000600960003373ffffffffffffffffffffffffffffffffffffffff1673ffffffffffffffffffffffffffffffffffffffff16815260200190815260200160002060000154905090565b60008061060033611311565b14610640576040517f08c379a000000000000000000000000000000000000000000000000000000000815260040161063790611e0c565b60405180910390fd5b600060405180608001604052806007548152602001841515815260200186815260200185815250905080600960003373ffffffffffffffffffffffffffffffffffffffff1673ffffffffffffffffffffffffffffffffffffffff1681526020019081526020016000206000820151816000015560208201518160010160006101000a81548160ff02191690831515021790555060408201518160020190816106e89190611fd8565b5060608201518160030190816106fe9190611fd8565b5090505060076000815480929190610715906120d9565b91905055503373ffffffffffffffffffffffffffffffffffffffff167ffa1a6cfc9a3dafde33905ef03f85f0dc18780d146186ff383b9cb7067b36339460405160405180910390a280600001519150509392505050565b60008061077833611311565b036107b8576040517f08c379a00000000000000000000000000000000000000000000000000000000081526004016107af90612193565b60405180910390fd5b6000604051806101000160405280600654815260200142815260200160008152602001600960003373ffffffffffffffffffffffffffffffffffffffff1673ffffffffffffffffffffffffffffffffffffffff1681526020019081526020016000206000015481526020018415158152602001858152602001600960003373ffffffffffffffffffffffffffffffffffffffff1673ffffffffffffffffffffffffffffffffffffffff168152602001908152602001600020600201805461087e90611d69565b80601f01602080910402602001604051908101604052809291908181526020018280546108aa90611d69565b80156108f75780601f106108cc576101008083540402835291602001916108f7565b820191906000526020600020905b8154815290600101906020018083116108da57829003601f168201915b50505050508152602001600960003373ffffffffffffffffffffffffffffffffffffffff1673ffffffffffffffffffffffffffffffffffffffff168152602001908152602001600020600301805461094e90611d69565b80601f016020809104026020016040519081016040528092919081815260200182805461097a90611d69565b80156109c75780601f1061099c576101008083540402835291602001916109c7565b820191906000526020600020905b8154815290600101906020018083116109aa57829003601f168201915b5050505050815250905060088190806001815401808255809150506001900390600052602060002090600802016000909190919091506000820151816000015560208201518160010155604082015181600201556060820151816003015560808201518160040160006101000a81548160ff02191690831515021790555060a0820151816005019081610a5a9190611fd8565b5060c0820151816006019081610a709190611fd8565b5060e0820151816007019081610a869190611fd8565b505050610a953360065461135d565b610aa160065485611506565b6000600654905060066000815480929190610abb906120d9565b9190505550803373ffffffffffffffffffffffffffffffffffffffff167f24bf55b6334e191fa1f43840390bd28f8494121c520aa3e68bb0ebeda72fc73a60405160405180910390a3809250505092915050565b60075481565b60096020528060005260406000206000915090508060000154908060010160009054906101000a900460ff1690806002018054610b5190611d69565b80601f0160208091040260200160405190810160405280929190818152602001828054610b7d90611d69565b8015610bca5780601f10610b9f57610100808354040283529160200191610bca565b820191906000526020600020905b815481529060010190602001808311610bad57829003601f168201915b505050505090806003018054610bdf90611d69565b80601f0160208091040260200160405190810160405280929190818152602001828054610c0b90611d69565b8015610c585780601f10610c2d57610100808354040283529160200191610c58565b820191906000526020600020905b815481529060010190602001808311610c3b57829003601f168201915b5050505050905084565b6000806003600084815260200190815260200160002060009054906101000a900473ffffffffffffffffffffffffffffffffffffffff169050600073ffffffffffffffffffffffffffffffffffffffff168173ffffffffffffffffffffffffffffffffffffffff1603610d0a576040517f08c379a0000000000000000000000000000000000000000000000000000000008152600401610d0190612225565b60405180910390fd5b80915050919050565b606060028054610d2290611d69565b80601f0160208091040260200160405190810160405280929190818152602001828054610d4e90611d69565b8015610d9b5780601f10610d7057610100808354040283529160200191610d9b565b820191906000526020600020905b815481529060010190602001808311610d7e57829003601f168201915b5050505050905090565b60008073ffffffffffffffffffffffffffffffffffffffff168273ffffffffffffffffffffffffffffffffffffffff1603610e15576040517f08c379a0000000000000000000000000000000000000000000000000000000008152600401610e0c906122b7565b60405180910390fd5b600460008373ffffffffffffffffffffffffffffffffffffffff1673ffffffffffffffffffffffffffffffffffffffff168152602001908152602001600020549050919050565b60606008805480602002602001604051908101604052809291908181526020016000905b828210156110ac578382906000526020600020906008020160405180610100016040529081600082015481526020016001820154815260200160028201548152602001600382015481526020016004820160009054906101000a900460ff16151515158152602001600582018054610ef790611d69565b80601f0160208091040260200160405190810160405280929190818152602001828054610f2390611d69565b8015610f705780601f10610f4557610100808354040283529160200191610f70565b820191906000526020600020905b815481529060010190602001808311610f5357829003601f168201915b50505050508152602001600682018054610f8990611d69565b80601f0160208091040260200160405190810160405280929190818152602001828054610fb590611d69565b80156110025780601f10610fd757610100808354040283529160200191611002565b820191906000526020600020905b815481529060010190602001808311610fe557829003601f168201915b5050505050815260200160078201805461101b90611d69565b80601f016020809104026020016040519081016040528092919081815260200182805461104790611d69565b80156110945780601f1061106957610100808354040283529160200191611094565b820191906000526020600020905b81548152906001019060200180831161107757829003601f168201915b50505050508152505081526020019060010190610e80565b50505050905090565b6060600180546110c490611d69565b80601f01602080910402602001604051908101604052809291908181526020018280546110f090611d69565b801561113d5780601f106111125761010080835404028352916020019161113d565b820191906000526020600020905b81548152906001019060200180831161112057829003601f168201915b5050505050905090565b60065481565b606061115882611573565b611197576040517f08c379a000000000000000000000000000000000000000000000000000000000815260040161118e90612349565b60405180910390fd5b60006005600084815260200190815260200160002080546111b790611d69565b80601f01602080910402602001604051908101604052809291908181526020018280546111e390611d69565b80156112305780601f1061120557610100808354040283529160200191611230565b820191906000526020600020905b81548152906001019060200180831161121357829003601f168201915b5050505050905060003073ffffffffffffffffffffffffffffffffffffffff16636c0360eb6040518163ffffffff1660e01b8152600401600060405180830381865afa158015611284573d6000803e3d6000fd5b505050506040513d6000823e3d601f19601f820116820180604052508101906112ad91906123d9565b905060008151036112c257819250505061130c565b6000825111156112f75780826040516020016112df92919061245e565b6040516020818303038152906040529250505061130c565b60405180602001604052806000815250925050505b919050565b6000600960008373ffffffffffffffffffffffffffffffffffffffff1673ffffffffffffffffffffffffffffffffffffffff168152602001908152602001600020600001549050919050565b600073ffffffffffffffffffffffffffffffffffffffff168273ffffffffffffffffffffffffffffffffffffffff16036113cc576040517f08c379a00000000000000000000000000000000000000000000000000000000081526004016113c3906124f4565b60405180910390fd5b6113d581611573565b15611415576040517f08c379a000000000000000000000000000000000000000000000000000000000815260040161140c90612586565b60405180910390fd5b6001600460008473ffffffffffffffffffffffffffffffffffffffff1673ffffffffffffffffffffffffffffffffffffffff168152602001908152602001600020600082825461146591906125a6565b92505081905550816003600083815260200190815260200160002060006101000a81548173ffffffffffffffffffffffffffffffffffffffff021916908373ffffffffffffffffffffffffffffffffffffffff160217905550808273ffffffffffffffffffffffffffffffffffffffff167f24bf55b6334e191fa1f43840390bd28f8494121c520aa3e68bb0ebeda72fc73a60405160405180910390a35050565b61150f82611573565b61154e576040517f08c379a00000000000000000000000000000000000000000000000000000000081526004016115459061264c565b60405180910390fd5b8060056000848152602001908152602001600020908161156e9190611fd8565b505050565b60008073ffffffffffffffffffffffffffffffffffffffff166003600084815260200190815260200160002060009054906101000a900473ffffffffffffffffffffffffffffffffffffffff1673ffffffffffffffffffffffffffffffffffffffff1614159050919050565b6000604051905090565b600080fd5b600080fd5b6000819050919050565b611606816115f3565b811461161157600080fd5b50565b600081359050611623816115fd565b92915050565b60006020828403121561163f5761163e6115e9565b5b600061164d84828501611614565b91505092915050565b61165f816115f3565b82525050565b60008115159050919050565b61167a81611665565b82525050565b600081519050919050565b600082825260208201905092915050565b60005b838110156116ba57808201518184015260208101905061169f565b60008484015250505050565b6000601f19601f8301169050919050565b60006116e282611680565b6116ec818561168b565b93506116fc81856020860161169c565b611705816116c6565b840191505092915050565b600061010082019050611726600083018b611656565b611733602083018a611656565b6117406040830189611656565b61174d6060830188611656565b61175a6080830187611671565b81810360a083015261176c81866116d7565b905081810360c083015261178081856116d7565b905081810360e083015261179481846116d7565b90509998505050505050505050565b600060208201905081810360008301526117bd81846116d7565b905092915050565b60006020820190506117da6000830184611656565b92915050565b600080fd5b600080fd5b7f4e487b7100000000000000000000000000000000000000000000000000000000600052604160045260246000fd5b611822826116c6565b810181811067ffffffffffffffff82111715611841576118406117ea565b5b80604052505050565b60006118546115df565b90506118608282611819565b919050565b600067ffffffffffffffff8211156118805761187f6117ea565b5b611889826116c6565b9050602081019050919050565b82818337600083830152505050565b60006118b86118b384611865565b61184a565b9050828152602081018484840111156118d4576118d36117e5565b5b6118df848285611896565b509392505050565b600082601f8301126118fc576118fb6117e0565b5b813561190c8482602086016118a5565b91505092915050565b61191e81611665565b811461192957600080fd5b50565b60008135905061193b81611915565b92915050565b60008060006060848603121561195a576119596115e9565b5b600084013567ffffffffffffffff811115611978576119776115ee565b5b611984868287016118e7565b935050602084013567ffffffffffffffff8111156119a5576119a46115ee565b5b6119b1868287016118e7565b92505060406119c28682870161192c565b9150509250925092565b600080604083850312156119e3576119e26115e9565b5b600083013567ffffffffffffffff811115611a0157611a006115ee565b5b611a0d858286016118e7565b9250506020611a1e8582860161192c565b9150509250929050565b600073ffffffffffffffffffffffffffffffffffffffff82169050919050565b6000611a5382611a28565b9050919050565b611a6381611a48565b8114611a6e57600080fd5b50565b600081359050611a8081611a5a565b92915050565b600060208284031215611a9c57611a9b6115e9565b5b6000611aaa84828501611a71565b91505092915050565b6000608082019050611ac86000830187611656565b611ad56020830186611671565b8181036040830152611ae781856116d7565b90508181036060830152611afb81846116d7565b905095945050505050565b611b0f81611a48565b82525050565b6000602082019050611b2a6000830184611b06565b92915050565b600081519050919050565b600082825260208201905092915050565b6000819050602082019050919050565b611b65816115f3565b82525050565b611b7481611665565b82525050565b600082825260208201905092915050565b6000611b9682611680565b611ba08185611b7a565b9350611bb081856020860161169c565b611bb9816116c6565b840191505092915050565b600061010083016000830151611bdd6000860182611b5c565b506020830151611bf06020860182611b5c565b506040830151611c036040860182611b5c565b506060830151611c166060860182611b5c565b506080830151611c296080860182611b6b565b5060a083015184820360a0860152611c418282611b8b565b91505060c083015184820360c0860152611c5b8282611b8b565b91505060e083015184820360e0860152611c758282611b8b565b9150508091505092915050565b6000611c8e8383611bc4565b905092915050565b6000602082019050919050565b6000611cae82611b30565b611cb88185611b3b565b935083602082028501611cca85611b4c565b8060005b85811015611d065784840389528151611ce78582611c82565b9450611cf283611c96565b925060208a01995050600181019050611cce565b50829750879550505050505092915050565b60006020820190508181036000830152611d328184611ca3565b905092915050565b7f4e487b7100000000000000000000000000000000000000000000000000000000600052602260045260246000fd5b60006002820490506001821680611d8157607f821691505b602082108103611d9457611d93611d3a565b5b50919050565b7f456c6563746f72616c4d616e6167657220617574686f7220616c72656164792060008201527f6578697374730000000000000000000000000000000000000000000000000000602082015250565b6000611df660268361168b565b9150611e0182611d9a565b604082019050919050565b60006020820190508181036000830152611e2581611de9565b9050919050565b60008190508160005260206000209050919050565b60006020601f8301049050919050565b600082821b905092915050565b600060088302611e8e7fffffffffffffffffffffffffffffffffffffffffffffffffffffffffffffffff82611e51565b611e988683611e51565b95508019841693508086168417925050509392505050565b6000819050919050565b6000611ed5611ed0611ecb846115f3565b611eb0565b6115f3565b9050919050565b6000819050919050565b611eef83611eba565b611f03611efb82611edc565b848454611e5e565b825550505050565b600090565b611f18611f0b565b611f23818484611ee6565b505050565b5b81811015611f4757611f3c600082611f10565b600181019050611f29565b5050565b601f821115611f8c57611f5d81611e2c565b611f6684611e41565b81016020851015611f75578190505b611f89611f8185611e41565b830182611f28565b50505b505050565b600082821c905092915050565b6000611faf60001984600802611f91565b1980831691505092915050565b6000611fc88383611f9e565b9150826002028217905092915050565b611fe182611680565b67ffffffffffffffff811115611ffa57611ff96117ea565b5b6120048254611d69565b61200f828285611f4b565b600060209050601f8311600181146120425760008415612030578287015190505b61203a8582611fbc565b8655506120a2565b601f19841661205086611e2c565b60005b8281101561207857848901518255600182019150602085019450602081019050612053565b868310156120955784890151612091601f891682611f9e565b8355505b6001600288020188555050505b505050505050565b7f4e487b7100000000000000000000000000000000000000000000000000000000600052601160045260246000fd5b60006120e4826115f3565b91507fffffffffffffffffffffffffffffffffffffffffffffffffffffffffffffffff8203612116576121156120aa565b5b600182019050919050565b7f456c6563746f72616c4d616e6167657220617574686f72206e6f74206578697360008201527f7473000000000000000000000000000000000000000000000000000000000000602082015250565b600061217d60228361168b565b915061218882612121565b604082019050919050565b600060208201905081810360008301526121ac81612170565b9050919050565b7f456c6563746f72616c50726f6d6973653a206f776e657220717565727920666f60008201527f72206e6f6e6578697374656e7420746f6b656e00000000000000000000000000602082015250565b600061220f60338361168b565b915061221a826121b3565b604082019050919050565b6000602082019050818103600083015261223e81612202565b9050919050565b7f456c6563746f72616c50726f6d6973653a206f776e6572206973207a65726f2060008201527f6164647265737300000000000000000000000000000000000000000000000000602082015250565b60006122a160278361168b565b91506122ac82612245565b604082019050919050565b600060208201905081810360008301526122d081612294565b9050919050565b7f456c6563746f72616c50726f6d6973653a2055524920717565727920666f722060008201527f6e6f6e6578697374656e7420746f6b656e000000000000000000000000000000602082015250565b600061233360318361168b565b915061233e826122d7565b604082019050919050565b6000602082019050818103600083015261236281612326565b9050919050565b600061237c61237784611865565b61184a565b905082815260208101848484011115612398576123976117e5565b5b6123a384828561169c565b509392505050565b600082601f8301126123c0576123bf6117e0565b5b81516123d0848260208601612369565b91505092915050565b6000602082840312156123ef576123ee6115e9565b5b600082015167ffffffffffffffff81111561240d5761240c6115ee565b5b612419848285016123ab565b91505092915050565b600081905092915050565b600061243882611680565b6124428185612422565b935061245281856020860161169c565b80840191505092915050565b600061246a828561242d565b9150612476828461242d565b91508190509392505050565b7f456c6563746f72616c50726f6d6973653a206d696e7420746f20746865207a6560008201527f726f206164647265737300000000000000000000000000000000000000000000602082015250565b60006124de602a8361168b565b91506124e982612482565b604082019050919050565b6000602082019050818103600083015261250d816124d1565b9050919050565b7f456c6563746f72616c50726f6d6973653a20746f6b656e20616c72656164792060008201527f6d696e7465640000000000000000000000000000000000000000000000000000602082015250565b600061257060268361168b565b915061257b82612514565b604082019050919050565b6000602082019050818103600083015261259f81612563565b9050919050565b60006125b1826115f3565b91506125bc836115f3565b92508282019050808211156125d4576125d36120aa565b5b92915050565b7f456c6563746f72616c50726f6d6973653a2055524920736574206f66206e6f6e60008201527f6578697374656e7420746f6b656e000000000000000000000000000000000000602082015250565b6000612636602e8361168b565b9150612641826125da565b604082019050919050565b6000602082019050818103600083015261266581612629565b905091905056fea2646970667358221220cb8b7ef38233d8f0413bae4d35bd17a90d8a27d170cf177b7186a610edf1c4cf64736f6c63430008110033",
  "linkReferences": {},
  "deployedLinkReferences": {}
}