{
  "_format": "hh-sol-artifact-1",
  "contractName": "ElectoralManager",
  "sourceName": "contracts/ElectoralManager.sol",
  "abi": [
    {
      "inputs": [],
      "stateMutability": "nonpayable",
      "type": "constructor"
    },
    {
      "anonymous": false,
      "inputs": [
        {
          "indexed": true,
          "internalType": "address",
          "name": "from",
          "type": "address"
        },
        {
          "indexed": true,
          "internalType": "uint256",
          "name": "tokenId",
          "type": "uint256"
        }
      ],
      "name": "ApprovedPromise",
      "type": "event"
    },
    {
      "anonymous": false,
      "inputs": [
        {
          "indexed": true,
          "internalType": "address",
          "name": "from",
          "type": "address"
        },
        {
          "indexed": true,
          "internalType": "uint256",
          "name": "tokenId",
          "type": "uint256"
        }
      ],
      "name": "CreatedPromise",
      "type": "event"
    },
    {
      "anonymous": false,
      "inputs": [
        {
          "indexed": true,
          "internalType": "address",
          "name": "owner",
          "type": "address"
        }
      ],
      "name": "NewPromiser",
      "type": "event"
    },
    {
      "inputs": [
        {
          "internalType": "address",
          "name": "_owner",
          "type": "address"
        }
      ],
      "name": "balanceOf",
      "outputs": [
        {
          "internalType": "uint256",
          "name": "balance",
          "type": "uint256"
        }
      ],
      "stateMutability": "view",
      "type": "function"
    },
    {
      "inputs": [],
      "name": "baseURI",
      "outputs": [
        {
          "internalType": "string",
          "name": "",
          "type": "string"
        }
      ],
      "stateMutability": "view",
      "type": "function"
    },
    {
      "inputs": [],
      "name": "checkMyIdentifier",
      "outputs": [
        {
          "internalType": "uint256",
          "name": "",
          "type": "uint256"
        }
      ],
      "stateMutability": "view",
      "type": "function"
    },
    {
      "inputs": [],
      "name": "counterElectoralPromises",
      "outputs": [
        {
          "internalType": "uint256",
          "name": "",
          "type": "uint256"
        }
      ],
      "stateMutability": "view",
      "type": "function"
    },
    {
      "inputs": [],
      "name": "counterPromisers",
      "outputs": [
        {
          "internalType": "uint256",
          "name": "",
          "type": "uint256"
        }
      ],
      "stateMutability": "view",
      "type": "function"
    },
    {
      "inputs": [
        {
          "internalType": "string",
          "name": "_tokenURI",
          "type": "string"
        },
        {
          "internalType": "bool",
          "name": "_isObligatory",
          "type": "bool"
        }
      ],
      "name": "createElectoralPromise",
      "outputs": [
        {
          "internalType": "uint256",
          "name": "",
          "type": "uint256"
        }
      ],
      "stateMutability": "nonpayable",
      "type": "function"
    },
    {
      "inputs": [],
      "name": "getAllPromises",
      "outputs": [
        {
          "components": [
            {
              "internalType": "uint256",
              "name": "id",
              "type": "uint256"
            },
            {
              "internalType": "uint256",
              "name": "created",
              "type": "uint256"
            },
            {
              "internalType": "uint256",
              "name": "dateApproved",
              "type": "uint256"
            },
            {
              "internalType": "uint256",
              "name": "idAuthor",
              "type": "uint256"
            },
            {
              "internalType": "bool",
              "name": "isObligatory",
              "type": "bool"
            },
            {
              "internalType": "string",
              "name": "tokenUri",
              "type": "string"
            },
            {
              "internalType": "string",
              "name": "nameAuthor",
              "type": "string"
            },
            {
              "internalType": "string",
              "name": "namePoliticalParty",
              "type": "string"
            }
          ],
          "internalType": "struct DataInfo.DataPromise[]",
          "name": "",
          "type": "tuple[]"
        }
      ],
      "stateMutability": "view",
      "type": "function"
    },
    {
      "inputs": [
        {
          "internalType": "uint256",
          "name": "",
          "type": "uint256"
        }
      ],
      "name": "listElectoralPromises",
      "outputs": [
        {
          "internalType": "uint256",
          "name": "id",
          "type": "uint256"
        },
        {
          "internalType": "uint256",
          "name": "created",
          "type": "uint256"
        },
        {
          "internalType": "uint256",
          "name": "dateApproved",
          "type": "uint256"
        },
        {
          "internalType": "uint256",
          "name": "idAuthor",
          "type": "uint256"
        },
        {
          "internalType": "bool",
          "name": "isObligatory",
          "type": "bool"
        },
        {
          "internalType": "string",
          "name": "tokenUri",
          "type": "string"
        },
        {
          "internalType": "string",
          "name": "nameAuthor",
          "type": "string"
        },
        {
          "internalType": "string",
          "name": "namePoliticalParty",
          "type": "string"
        }
      ],
      "stateMutability": "view",
      "type": "function"
    },
    {
      "inputs": [
        {
          "internalType": "address",
          "name": "",
          "type": "address"
        }
      ],
      "name": "listPromisers",
      "outputs": [
        {
          "internalType": "uint256",
          "name": "idAuthor",
          "type": "uint256"
        },
        {
          "internalType": "bool",
          "name": "isPoliticalParty",
          "type": "bool"
        },
        {
          "internalType": "string",
          "name": "completeName",
          "type": "string"
        },
        {
          "internalType": "string",
          "name": "namePoliticalParty",
          "type": "string"
        }
      ],
      "stateMutability": "view",
      "type": "function"
    },
    {
      "inputs": [],
      "name": "name",
      "outputs": [
        {
          "internalType": "string",
          "name": "",
          "type": "string"
        }
      ],
      "stateMutability": "view",
      "type": "function"
    },
    {
      "inputs": [
        {
          "internalType": "uint256",
          "name": "tokenId",
          "type": "uint256"
        }
      ],
      "name": "ownerOf",
      "outputs": [
        {
          "internalType": "address",
          "name": "owner",
          "type": "address"
        }
      ],
      "stateMutability": "view",
      "type": "function"
    },
    {
      "inputs": [
        {
          "internalType": "string",
          "name": "_completeName",
          "type": "string"
        },
        {
          "internalType": "string",
          "name": "_namePoliticalParty",
          "type": "string"
        },
        {
          "internalType": "bool",
          "name": "_isPoliticalParty",
          "type": "bool"
        }
      ],
      "name": "registerUser",
      "outputs": [
        {
          "internalType": "uint256",
          "name": "",
          "type": "uint256"
        }
      ],
      "stateMutability": "nonpayable",
      "type": "function"
    },
    {
      "inputs": [],
      "name": "symbol",
      "outputs": [
        {
          "internalType": "string",
          "name": "",
          "type": "string"
        }
      ],
      "stateMutability": "view",
      "type": "function"
    },
    {
      "inputs": [
        {
          "internalType": "uint256",
          "name": "tokenId",
          "type": "uint256"
        }
      ],
      "name": "tokenURI",
      "outputs": [
        {
          "internalType": "string",
          "name": "",
          "type": "string"
        }
      ],
      "stateMutability": "view",
      "type": "function"
    }
  ],
  "bytecode": "0x60806040523480156200001157600080fd5b506040518060400160405280600a81526020017f466f6f6c4d654f6e6365000000000000000000000000000000000000000000008152506040518060400160405280600381526020017f464d4f00000000000000000000000000000000000000000000000000000000008152506040518060400160405280600781526020017f697066733a2f2f000000000000000000000000000000000000000000000000008152508260009081620000c591906200037d565b508160019081620000d791906200037d565b508060029081620000e991906200037d565b505050506000600681905550600160078190555062000464565b600081519050919050565b7f4e487b7100000000000000000000000000000000000000000000000000000000600052604160045260246000fd5b7f4e487b7100000000000000000000000000000000000000000000000000000000600052602260045260246000fd5b600060028204905060018216806200018557607f821691505b6020821081036200019b576200019a6200013d565b5b50919050565b60008190508160005260206000209050919050565b60006020601f8301049050919050565b600082821b905092915050565b600060088302620002057fffffffffffffffffffffffffffffffffffffffffffffffffffffffffffffffff82620001c6565b620002118683620001c6565b95508019841693508086168417925050509392505050565b6000819050919050565b6000819050919050565b60006200025e62000258620002528462000229565b62000233565b62000229565b9050919050565b6000819050919050565b6200027a836200023d565b62000292620002898262000265565b848454620001d3565b825550505050565b600090565b620002a96200029a565b620002b68184846200026f565b505050565b5b81811015620002de57620002d26000826200029f565b600181019050620002bc565b5050565b601f8211156200032d57620002f781620001a1565b6200030284620001b6565b8101602085101562000312578190505b6200032a6200032185620001b6565b830182620002bb565b50505b505050565b600082821c905092915050565b6000620003526000198460080262000332565b1980831691505092915050565b60006200036d83836200033f565b9150826002028217905092915050565b620003888262000103565b67ffffffffffffffff811115620003a457620003a36200010e565b5b620003b082546200016c565b620003bd828285620002e2565b600060209050601f831160018114620003f55760008415620003e0578287015190505b620003ec85826200035f565b8655506200045c565b601f1984166200040586620001a1565b60005b828110156200042f5784890151825560018201915060208501945060208101905062000408565b868310156200044f57848901516200044b601f8916826200033f565b8355505b6001600288020188555050505b505050505050565b6126a480620004746000396000f3fe608060405234801561001057600080fd5b50600436106100ea5760003560e01c80636352211e1161008c5780637a586b9d116100665780637a586b9d1461029157806395d89b41146102af578063a9d02272146102cd578063c87b56dd146102eb576100ea565b80636352211e146102135780636c0360eb1461024357806370a0823114610261576100ea565b8063181f51c6116100c8578063181f51c61461016257806322cc78d4146101925780635dde5310146101c25780635e2a67a9146101e0576100ea565b8063043d9b24146100ef57806306fdde031461012657806314a81c1414610144575b600080fd5b6101096004803603810190610104919061162b565b61031b565b60405161011d989796959493929190611712565b60405180910390f35b61012e610518565b60405161013b91906117a5565b60405180910390f35b61014c6105aa565b60405161015991906117c7565b60405180910390f35b61017c60048036038101906101779190611943565b6105f4565b60405161018991906117c7565b60405180910390f35b6101ac60048036038101906101a791906119ce565b61076c565b6040516101b991906117c7565b60405180910390f35b6101ca610b11565b6040516101d791906117c7565b60405180910390f35b6101fa60048036038101906101f59190611a88565b610b17565b60405161020a9493929190611ab5565b60405180910390f35b61022d6004803603810190610228919061162b565b610c64565b60405161023a9190611b17565b60405180910390f35b61024b610d15565b60405161025891906117a5565b60405180910390f35b61027b60048036038101906102769190611a88565b610da7565b60405161028891906117c7565b60405180910390f35b610299610e5e565b6040516102a69190611d1a565b60405180910390f35b6102b76110b7565b6040516102c491906117a5565b60405180910390f35b6102d5611149565b6040516102e291906117c7565b60405180910390f35b6103056004803603810190610300919061162b565b61114f565b60405161031291906117a5565b60405180910390f35b6008818154811061032b57600080fd5b90600052602060002090600802016000915090508060000154908060010154908060020154908060030154908060040160009054906101000a900460ff169080600501805461037990611d6b565b80601f01602080910402602001604051908101604052809291908181526020018280546103a590611d6b565b80156103f25780601f106103c7576101008083540402835291602001916103f2565b820191906000526020600020905b8154815290600101906020018083116103d557829003601f168201915b50505050509080600601805461040790611d6b565b80601f016020809104026020016040519081016040528092919081815260200182805461043390611d6b565b80156104805780601f1061045557610100808354040283529160200191610480565b820191906000526020600020905b81548152906001019060200180831161046357829003601f168201915b50505050509080600701805461049590611d6b565b80601f01602080910402602001604051908101604052809291908181526020018280546104c190611d6b565b801561050e5780601f106104e35761010080835404028352916020019161050e565b820191906000526020600020905b8154815290600101906020018083116104f157829003601f168201915b5050505050905088565b60606000805461052790611d6b565b80601f016020809104026020016040519081016040528092919081815260200182805461055390611d6b565b80156105a05780601f10610575576101008083540402835291602001916105a0565b820191906000526020600020905b81548152906001019060200180831161058357829003601f168201915b5050505050905090565b6000600960003373ffffffffffffffffffffffffffffffffffffffff1673ffffffffffffffffffffffffffffffffffffffff16815260200190815260200160002060000154905090565b60008061060033611313565b14610640576040517f08c379a000000000000000000000000000000000000000000000000000000000815260040161063790611e0e565b60405180910390fd5b600060405180608001604052806007548152602001841515815260200186815260200185815250905080600960003373ffffffffffffffffffffffffffffffffffffffff1673ffffffffffffffffffffffffffffffffffffffff1681526020019081526020016000206000820151816000015560208201518160010160006101000a81548160ff02191690831515021790555060408201518160020190816106e89190611fda565b5060608201518160030190816106fe9190611fda565b5090505060076000815480929190610715906120db565b91905055503373ffffffffffffffffffffffffffffffffffffffff167ffa1a6cfc9a3dafde33905ef03f85f0dc18780d146186ff383b9cb7067b36339460405160405180910390a280600001519150509392505050565b60008061077833611313565b036107b8576040517f08c379a00000000000000000000000000000000000000000000000000000000081526004016107af90612195565b60405180910390fd5b6000604051806101000160405280600654815260200142815260200160008152602001600960003373ffffffffffffffffffffffffffffffffffffffff1673ffffffffffffffffffffffffffffffffffffffff1681526020019081526020016000206000015481526020018415158152602001858152602001600960003373ffffffffffffffffffffffffffffffffffffffff1673ffffffffffffffffffffffffffffffffffffffff168152602001908152602001600020600201805461087e90611d6b565b80601f01602080910402602001604051908101604052809291908181526020018280546108aa90611d6b565b80156108f75780601f106108cc576101008083540402835291602001916108f7565b820191906000526020600020905b8154815290600101906020018083116108da57829003601f168201915b50505050508152602001600960003373ffffffffffffffffffffffffffffffffffffffff1673ffffffffffffffffffffffffffffffffffffffff168152602001908152602001600020600301805461094e90611d6b565b80601f016020809104026020016040519081016040528092919081815260200182805461097a90611d6b565b80156109c75780601f1061099c576101008083540402835291602001916109c7565b820191906000526020600020905b8154815290600101906020018083116109aa57829003601f168201915b5050505050815250905060088190806001815401808255809150506001900390600052602060002090600802016000909190919091506000820151816000015560208201518160010155604082015181600201556060820151816003015560808201518160040160006101000a81548160ff02191690831515021790555060a0820151816005019081610a5a9190611fda565b5060c0820151816006019081610a709190611fda565b5060e0820151816007019081610a869190611fda565b505050610a953360065461135f565b610aa160065485611508565b6000600654905060066000815480929190610abb906120db565b9190505550803373ffffffffffffffffffffffffffffffffffffffff167f24bf55b6334e191fa1f43840390bd28f8494121c520aa3e68bb0ebeda72fc73a60405160405180910390a36006549250505092915050565b60075481565b60096020528060005260406000206000915090508060000154908060010160009054906101000a900460ff1690806002018054610b5390611d6b565b80601f0160208091040260200160405190810160405280929190818152602001828054610b7f90611d6b565b8015610bcc5780601f10610ba157610100808354040283529160200191610bcc565b820191906000526020600020905b815481529060010190602001808311610baf57829003601f168201915b505050505090806003018054610be190611d6b565b80601f0160208091040260200160405190810160405280929190818152602001828054610c0d90611d6b565b8015610c5a5780601f10610c2f57610100808354040283529160200191610c5a565b820191906000526020600020905b815481529060010190602001808311610c3d57829003601f168201915b5050505050905084565b6000806003600084815260200190815260200160002060009054906101000a900473ffffffffffffffffffffffffffffffffffffffff169050600073ffffffffffffffffffffffffffffffffffffffff168173ffffffffffffffffffffffffffffffffffffffff1603610d0c576040517f08c379a0000000000000000000000000000000000000000000000000000000008152600401610d0390612227565b60405180910390fd5b80915050919050565b606060028054610d2490611d6b565b80601f0160208091040260200160405190810160405280929190818152602001828054610d5090611d6b565b8015610d9d5780601f10610d7257610100808354040283529160200191610d9d565b820191906000526020600020905b815481529060010190602001808311610d8057829003601f168201915b5050505050905090565b60008073ffffffffffffffffffffffffffffffffffffffff168273ffffffffffffffffffffffffffffffffffffffff1603610e17576040517f08c379a0000000000000000000000000000000000000000000000000000000008152600401610e0e906122b9565b60405180910390fd5b600460008373ffffffffffffffffffffffffffffffffffffffff1673ffffffffffffffffffffffffffffffffffffffff168152602001908152602001600020549050919050565b60606008805480602002602001604051908101604052809291908181526020016000905b828210156110ae578382906000526020600020906008020160405180610100016040529081600082015481526020016001820154815260200160028201548152602001600382015481526020016004820160009054906101000a900460ff16151515158152602001600582018054610ef990611d6b565b80601f0160208091040260200160405190810160405280929190818152602001828054610f2590611d6b565b8015610f725780601f10610f4757610100808354040283529160200191610f72565b820191906000526020600020905b815481529060010190602001808311610f5557829003601f168201915b50505050508152602001600682018054610f8b90611d6b565b80601f0160208091040260200160405190810160405280929190818152602001828054610fb790611d6b565b80156110045780601f10610fd957610100808354040283529160200191611004565b820191906000526020600020905b815481529060010190602001808311610fe757829003601f168201915b5050505050815260200160078201805461101d90611d6b565b80601f016020809104026020016040519081016040528092919081815260200182805461104990611d6b565b80156110965780601f1061106b57610100808354040283529160200191611096565b820191906000526020600020905b81548152906001019060200180831161107957829003601f168201915b50505050508152505081526020019060010190610e82565b50505050905090565b6060600180546110c690611d6b565b80601f01602080910402602001604051908101604052809291908181526020018280546110f290611d6b565b801561113f5780601f106111145761010080835404028352916020019161113f565b820191906000526020600020905b81548152906001019060200180831161112257829003601f168201915b5050505050905090565b60065481565b606061115a82611575565b611199576040517f08c379a00000000000000000000000000000000000000000000000000000000081526004016111909061234b565b60405180910390fd5b60006005600084815260200190815260200160002080546111b990611d6b565b80601f01602080910402602001604051908101604052809291908181526020018280546111e590611d6b565b80156112325780601f1061120757610100808354040283529160200191611232565b820191906000526020600020905b81548152906001019060200180831161121557829003601f168201915b5050505050905060003073ffffffffffffffffffffffffffffffffffffffff16636c0360eb6040518163ffffffff1660e01b8152600401600060405180830381865afa158015611286573d6000803e3d6000fd5b505050506040513d6000823e3d601f19601f820116820180604052508101906112af91906123db565b905060008151036112c457819250505061130e565b6000825111156112f95780826040516020016112e1929190612460565b6040516020818303038152906040529250505061130e565b60405180602001604052806000815250925050505b919050565b6000600960008373ffffffffffffffffffffffffffffffffffffffff1673ffffffffffffffffffffffffffffffffffffffff168152602001908152602001600020600001549050919050565b600073ffffffffffffffffffffffffffffffffffffffff168273ffffffffffffffffffffffffffffffffffffffff16036113ce576040517f08c379a00000000000000000000000000000000000000000000000000000000081526004016113c5906124f6565b60405180910390fd5b6113d781611575565b15611417576040517f08c379a000000000000000000000000000000000000000000000000000000000815260040161140e90612588565b60405180910390fd5b6001600460008473ffffffffffffffffffffffffffffffffffffffff1673ffffffffffffffffffffffffffffffffffffffff168152602001908152602001600020600082825461146791906125a8565b92505081905550816003600083815260200190815260200160002060006101000a81548173ffffffffffffffffffffffffffffffffffffffff021916908373ffffffffffffffffffffffffffffffffffffffff160217905550808273ffffffffffffffffffffffffffffffffffffffff167f24bf55b6334e191fa1f43840390bd28f8494121c520aa3e68bb0ebeda72fc73a60405160405180910390a35050565b61151182611575565b611550576040517f08c379a00000000000000000000000000000000000000000000000000000000081526004016115479061264e565b60405180910390fd5b806005600084815260200190815260200160002090816115709190611fda565b505050565b60008073ffffffffffffffffffffffffffffffffffffffff166003600084815260200190815260200160002060009054906101000a900473ffffffffffffffffffffffffffffffffffffffff1673ffffffffffffffffffffffffffffffffffffffff1614159050919050565b6000604051905090565b600080fd5b600080fd5b6000819050919050565b611608816115f5565b811461161357600080fd5b50565b600081359050611625816115ff565b92915050565b600060208284031215611641576116406115eb565b5b600061164f84828501611616565b91505092915050565b611661816115f5565b82525050565b60008115159050919050565b61167c81611667565b82525050565b600081519050919050565b600082825260208201905092915050565b60005b838110156116bc5780820151818401526020810190506116a1565b60008484015250505050565b6000601f19601f8301169050919050565b60006116e482611682565b6116ee818561168d565b93506116fe81856020860161169e565b611707816116c8565b840191505092915050565b600061010082019050611728600083018b611658565b611735602083018a611658565b6117426040830189611658565b61174f6060830188611658565b61175c6080830187611673565b81810360a083015261176e81866116d9565b905081810360c083015261178281856116d9565b905081810360e083015261179681846116d9565b90509998505050505050505050565b600060208201905081810360008301526117bf81846116d9565b905092915050565b60006020820190506117dc6000830184611658565b92915050565b600080fd5b600080fd5b7f4e487b7100000000000000000000000000000000000000000000000000000000600052604160045260246000fd5b611824826116c8565b810181811067ffffffffffffffff82111715611843576118426117ec565b5b80604052505050565b60006118566115e1565b9050611862828261181b565b919050565b600067ffffffffffffffff821115611882576118816117ec565b5b61188b826116c8565b9050602081019050919050565b82818337600083830152505050565b60006118ba6118b584611867565b61184c565b9050828152602081018484840111156118d6576118d56117e7565b5b6118e1848285611898565b509392505050565b600082601f8301126118fe576118fd6117e2565b5b813561190e8482602086016118a7565b91505092915050565b61192081611667565b811461192b57600080fd5b50565b60008135905061193d81611917565b92915050565b60008060006060848603121561195c5761195b6115eb565b5b600084013567ffffffffffffffff81111561197a576119796115f0565b5b611986868287016118e9565b935050602084013567ffffffffffffffff8111156119a7576119a66115f0565b5b6119b3868287016118e9565b92505060406119c48682870161192e565b9150509250925092565b600080604083850312156119e5576119e46115eb565b5b600083013567ffffffffffffffff811115611a0357611a026115f0565b5b611a0f858286016118e9565b9250506020611a208582860161192e565b9150509250929050565b600073ffffffffffffffffffffffffffffffffffffffff82169050919050565b6000611a5582611a2a565b9050919050565b611a6581611a4a565b8114611a7057600080fd5b50565b600081359050611a8281611a5c565b92915050565b600060208284031215611a9e57611a9d6115eb565b5b6000611aac84828501611a73565b91505092915050565b6000608082019050611aca6000830187611658565b611ad76020830186611673565b8181036040830152611ae981856116d9565b90508181036060830152611afd81846116d9565b905095945050505050565b611b1181611a4a565b82525050565b6000602082019050611b2c6000830184611b08565b92915050565b600081519050919050565b600082825260208201905092915050565b6000819050602082019050919050565b611b67816115f5565b82525050565b611b7681611667565b82525050565b600082825260208201905092915050565b6000611b9882611682565b611ba28185611b7c565b9350611bb281856020860161169e565b611bbb816116c8565b840191505092915050565b600061010083016000830151611bdf6000860182611b5e565b506020830151611bf26020860182611b5e565b506040830151611c056040860182611b5e565b506060830151611c186060860182611b5e565b506080830151611c2b6080860182611b6d565b5060a083015184820360a0860152611c438282611b8d565b91505060c083015184820360c0860152611c5d8282611b8d565b91505060e083015184820360e0860152611c778282611b8d565b9150508091505092915050565b6000611c908383611bc6565b905092915050565b6000602082019050919050565b6000611cb082611b32565b611cba8185611b3d565b935083602082028501611ccc85611b4e565b8060005b85811015611d085784840389528151611ce98582611c84565b9450611cf483611c98565b925060208a01995050600181019050611cd0565b50829750879550505050505092915050565b60006020820190508181036000830152611d348184611ca5565b905092915050565b7f4e487b7100000000000000000000000000000000000000000000000000000000600052602260045260246000fd5b60006002820490506001821680611d8357607f821691505b602082108103611d9657611d95611d3c565b5b50919050565b7f456c6563746f72616c4d616e6167657220617574686f7220616c72656164792060008201527f6578697374730000000000000000000000000000000000000000000000000000602082015250565b6000611df860268361168d565b9150611e0382611d9c565b604082019050919050565b60006020820190508181036000830152611e2781611deb565b9050919050565b60008190508160005260206000209050919050565b60006020601f8301049050919050565b600082821b905092915050565b600060088302611e907fffffffffffffffffffffffffffffffffffffffffffffffffffffffffffffffff82611e53565b611e9a8683611e53565b95508019841693508086168417925050509392505050565b6000819050919050565b6000611ed7611ed2611ecd846115f5565b611eb2565b6115f5565b9050919050565b6000819050919050565b611ef183611ebc565b611f05611efd82611ede565b848454611e60565b825550505050565b600090565b611f1a611f0d565b611f25818484611ee8565b505050565b5b81811015611f4957611f3e600082611f12565b600181019050611f2b565b5050565b601f821115611f8e57611f5f81611e2e565b611f6884611e43565b81016020851015611f77578190505b611f8b611f8385611e43565b830182611f2a565b50505b505050565b600082821c905092915050565b6000611fb160001984600802611f93565b1980831691505092915050565b6000611fca8383611fa0565b9150826002028217905092915050565b611fe382611682565b67ffffffffffffffff811115611ffc57611ffb6117ec565b5b6120068254611d6b565b612011828285611f4d565b600060209050601f8311600181146120445760008415612032578287015190505b61203c8582611fbe565b8655506120a4565b601f19841661205286611e2e565b60005b8281101561207a57848901518255600182019150602085019450602081019050612055565b868310156120975784890151612093601f891682611fa0565b8355505b6001600288020188555050505b505050505050565b7f4e487b7100000000000000000000000000000000000000000000000000000000600052601160045260246000fd5b60006120e6826115f5565b91507fffffffffffffffffffffffffffffffffffffffffffffffffffffffffffffffff8203612118576121176120ac565b5b600182019050919050565b7f456c6563746f72616c4d616e6167657220617574686f72206e6f74206578697360008201527f7473000000000000000000000000000000000000000000000000000000000000602082015250565b600061217f60228361168d565b915061218a82612123565b604082019050919050565b600060208201905081810360008301526121ae81612172565b9050919050565b7f456c6563746f72616c50726f6d6973653a206f776e657220717565727920666f60008201527f72206e6f6e6578697374656e7420746f6b656e00000000000000000000000000602082015250565b600061221160338361168d565b915061221c826121b5565b604082019050919050565b6000602082019050818103600083015261224081612204565b9050919050565b7f456c6563746f72616c50726f6d6973653a206f776e6572206973207a65726f2060008201527f6164647265737300000000000000000000000000000000000000000000000000602082015250565b60006122a360278361168d565b91506122ae82612247565b604082019050919050565b600060208201905081810360008301526122d281612296565b9050919050565b7f456c6563746f72616c50726f6d6973653a2055524920717565727920666f722060008201527f6e6f6e6578697374656e7420746f6b656e000000000000000000000000000000602082015250565b600061233560318361168d565b9150612340826122d9565b604082019050919050565b6000602082019050818103600083015261236481612328565b9050919050565b600061237e61237984611867565b61184c565b90508281526020810184848401111561239a576123996117e7565b5b6123a584828561169e565b509392505050565b600082601f8301126123c2576123c16117e2565b5b81516123d284826020860161236b565b91505092915050565b6000602082840312156123f1576123f06115eb565b5b600082015167ffffffffffffffff81111561240f5761240e6115f0565b5b61241b848285016123ad565b91505092915050565b600081905092915050565b600061243a82611682565b6124448185612424565b935061245481856020860161169e565b80840191505092915050565b600061246c828561242f565b9150612478828461242f565b91508190509392505050565b7f456c6563746f72616c50726f6d6973653a206d696e7420746f20746865207a6560008201527f726f206164647265737300000000000000000000000000000000000000000000602082015250565b60006124e0602a8361168d565b91506124eb82612484565b604082019050919050565b6000602082019050818103600083015261250f816124d3565b9050919050565b7f456c6563746f72616c50726f6d6973653a20746f6b656e20616c72656164792060008201527f6d696e7465640000000000000000000000000000000000000000000000000000602082015250565b600061257260268361168d565b915061257d82612516565b604082019050919050565b600060208201905081810360008301526125a181612565565b9050919050565b60006125b3826115f5565b91506125be836115f5565b92508282019050808211156125d6576125d56120ac565b5b92915050565b7f456c6563746f72616c50726f6d6973653a2055524920736574206f66206e6f6e60008201527f6578697374656e7420746f6b656e000000000000000000000000000000000000602082015250565b6000612638602e8361168d565b9150612643826125dc565b604082019050919050565b600060208201905081810360008301526126678161262b565b905091905056fea2646970667358221220f4dd4b9af9f04a9fe84eaf56b49605a97aadab7b1d6d2918d28ffd6e17fa333264736f6c63430008110033",
  "linkReferences": {},
  "deployedLinkReferences": {}
}