{
  "_format": "hh-sol-artifact-1",
  "contractName": "ElectoralManager",
  "sourceName": "contracts/ElectoralManager.sol",
  "abi": [
    {
      "inputs": [
        {
          "internalType": "string",
          "name": "name_",
          "type": "string"
        },
        {
          "internalType": "string",
          "name": "symbol_",
          "type": "string"
        },
        {
          "internalType": "string",
          "name": "baseUri_",
          "type": "string"
        }
      ],
      "stateMutability": "nonpayable",
      "type": "constructor"
    },
    {
      "anonymous": false,
      "inputs": [
        {
          "indexed": true,
          "internalType": "uint256",
          "name": "tokenId",
          "type": "uint256"
        }
      ],
      "name": "ApprovedPromise",
      "type": "event"
    },
    {
      "anonymous": false,
      "inputs": [
        {
          "indexed": true,
          "internalType": "address",
          "name": "from",
          "type": "address"
        },
        {
          "indexed": true,
          "internalType": "uint256",
          "name": "tokenId",
          "type": "uint256"
        }
      ],
      "name": "CreatedPromise",
      "type": "event"
    },
    {
      "anonymous": false,
      "inputs": [
        {
          "indexed": true,
          "internalType": "address",
          "name": "owner",
          "type": "address"
        }
      ],
      "name": "NewPromiser",
      "type": "event"
    },
    {
      "anonymous": false,
      "inputs": [
        {
          "indexed": true,
          "internalType": "address",
          "name": "previousOwner",
          "type": "address"
        },
        {
          "indexed": true,
          "internalType": "address",
          "name": "newOwner",
          "type": "address"
        }
      ],
      "name": "OwnershipTransferred",
      "type": "event"
    },
    {
      "inputs": [],
      "name": "SECONDS_LEGISLATURE",
      "outputs": [
        {
          "internalType": "uint256",
          "name": "",
          "type": "uint256"
        }
      ],
      "stateMutability": "view",
      "type": "function"
    },
    {
      "inputs": [
        {
          "internalType": "uint256",
          "name": "promiseId",
          "type": "uint256"
        }
      ],
      "name": "approvePromise",
      "outputs": [],
      "stateMutability": "nonpayable",
      "type": "function"
    },
    {
      "inputs": [
        {
          "internalType": "address",
          "name": "_owner",
          "type": "address"
        }
      ],
      "name": "balanceOf",
      "outputs": [
        {
          "internalType": "uint256",
          "name": "balance",
          "type": "uint256"
        }
      ],
      "stateMutability": "view",
      "type": "function"
    },
    {
      "inputs": [],
      "name": "baseURI",
      "outputs": [
        {
          "internalType": "string",
          "name": "",
          "type": "string"
        }
      ],
      "stateMutability": "view",
      "type": "function"
    },
    {
      "inputs": [],
      "name": "checkMyIdentifier",
      "outputs": [
        {
          "internalType": "uint256",
          "name": "",
          "type": "uint256"
        }
      ],
      "stateMutability": "view",
      "type": "function"
    },
    {
      "inputs": [],
      "name": "counterElectoralPromises",
      "outputs": [
        {
          "internalType": "uint256",
          "name": "",
          "type": "uint256"
        }
      ],
      "stateMutability": "view",
      "type": "function"
    },
    {
      "inputs": [],
      "name": "counterPromisers",
      "outputs": [
        {
          "internalType": "uint256",
          "name": "",
          "type": "uint256"
        }
      ],
      "stateMutability": "view",
      "type": "function"
    },
    {
      "inputs": [
        {
          "internalType": "string",
          "name": "_tokenURI",
          "type": "string"
        },
        {
          "internalType": "bool",
          "name": "_isObligatory",
          "type": "bool"
        }
      ],
      "name": "createElectoralPromise",
      "outputs": [
        {
          "internalType": "uint256",
          "name": "",
          "type": "uint256"
        }
      ],
      "stateMutability": "nonpayable",
      "type": "function"
    },
    {
      "inputs": [
        {
          "internalType": "uint256",
          "name": "",
          "type": "uint256"
        }
      ],
      "name": "electoralPromises",
      "outputs": [
        {
          "internalType": "uint256",
          "name": "id",
          "type": "uint256"
        },
        {
          "internalType": "uint256",
          "name": "created",
          "type": "uint256"
        },
        {
          "internalType": "uint256",
          "name": "dateApproved",
          "type": "uint256"
        },
        {
          "internalType": "uint256",
          "name": "idAuthor",
          "type": "uint256"
        },
        {
          "internalType": "bool",
          "name": "isObligatory",
          "type": "bool"
        },
        {
          "internalType": "string",
          "name": "tokenUri",
          "type": "string"
        },
        {
          "internalType": "string",
          "name": "nameAuthor",
          "type": "string"
        },
        {
          "internalType": "string",
          "name": "namePoliticalParty",
          "type": "string"
        }
      ],
      "stateMutability": "view",
      "type": "function"
    },
    {
      "inputs": [],
      "name": "getAllPromises",
      "outputs": [
        {
          "components": [
            {
              "internalType": "uint256",
              "name": "id",
              "type": "uint256"
            },
            {
              "internalType": "uint256",
              "name": "created",
              "type": "uint256"
            },
            {
              "internalType": "uint256",
              "name": "dateApproved",
              "type": "uint256"
            },
            {
              "internalType": "uint256",
              "name": "idAuthor",
              "type": "uint256"
            },
            {
              "internalType": "bool",
              "name": "isObligatory",
              "type": "bool"
            },
            {
              "internalType": "string",
              "name": "tokenUri",
              "type": "string"
            },
            {
              "internalType": "string",
              "name": "nameAuthor",
              "type": "string"
            },
            {
              "internalType": "string",
              "name": "namePoliticalParty",
              "type": "string"
            }
          ],
          "internalType": "struct DataInfo.DataPromise[]",
          "name": "",
          "type": "tuple[]"
        }
      ],
      "stateMutability": "view",
      "type": "function"
    },
    {
      "inputs": [],
      "name": "name",
      "outputs": [
        {
          "internalType": "string",
          "name": "",
          "type": "string"
        }
      ],
      "stateMutability": "view",
      "type": "function"
    },
    {
      "inputs": [],
      "name": "owner",
      "outputs": [
        {
          "internalType": "address",
          "name": "",
          "type": "address"
        }
      ],
      "stateMutability": "view",
      "type": "function"
    },
    {
      "inputs": [
        {
          "internalType": "uint256",
          "name": "tokenId",
          "type": "uint256"
        }
      ],
      "name": "ownerOf",
      "outputs": [
        {
          "internalType": "address",
          "name": "owner",
          "type": "address"
        }
      ],
      "stateMutability": "view",
      "type": "function"
    },
    {
      "inputs": [
        {
          "internalType": "address",
          "name": "",
          "type": "address"
        }
      ],
      "name": "promisers",
      "outputs": [
        {
          "internalType": "uint256",
          "name": "idAuthor",
          "type": "uint256"
        },
        {
          "internalType": "bool",
          "name": "isPoliticalParty",
          "type": "bool"
        },
        {
          "internalType": "string",
          "name": "completeName",
          "type": "string"
        },
        {
          "internalType": "string",
          "name": "namePoliticalParty",
          "type": "string"
        }
      ],
      "stateMutability": "view",
      "type": "function"
    },
    {
      "inputs": [
        {
          "internalType": "string",
          "name": "_completeName",
          "type": "string"
        },
        {
          "internalType": "string",
          "name": "_namePoliticalParty",
          "type": "string"
        },
        {
          "internalType": "bool",
          "name": "_isPoliticalParty",
          "type": "bool"
        }
      ],
      "name": "registerUser",
      "outputs": [
        {
          "internalType": "uint256",
          "name": "",
          "type": "uint256"
        }
      ],
      "stateMutability": "nonpayable",
      "type": "function"
    },
    {
      "inputs": [],
      "name": "renounceOwnership",
      "outputs": [],
      "stateMutability": "nonpayable",
      "type": "function"
    },
    {
      "inputs": [],
      "name": "symbol",
      "outputs": [
        {
          "internalType": "string",
          "name": "",
          "type": "string"
        }
      ],
      "stateMutability": "view",
      "type": "function"
    },
    {
      "inputs": [
        {
          "internalType": "uint256",
          "name": "tokenId",
          "type": "uint256"
        }
      ],
      "name": "tokenURI",
      "outputs": [
        {
          "internalType": "string",
          "name": "",
          "type": "string"
        }
      ],
      "stateMutability": "view",
      "type": "function"
    },
    {
      "inputs": [
        {
          "internalType": "address",
          "name": "newOwner",
          "type": "address"
        }
      ],
      "name": "transferOwnership",
      "outputs": [],
      "stateMutability": "nonpayable",
      "type": "function"
    }
  ],
  "bytecode": "0x60806040523480156200001157600080fd5b50604051620034e1380380620034e183398181016040528101906200003791906200030d565b82828282600090816200004b919062000611565b5081600190816200005d919062000611565b5080600290816200006f919062000611565b505050506200009362000087620000ac60201b60201c565b620000b460201b60201c565b60006007819055506001600881905550505050620006f8565b600033905090565b6000600660009054906101000a900473ffffffffffffffffffffffffffffffffffffffff16905081600660006101000a81548173ffffffffffffffffffffffffffffffffffffffff021916908373ffffffffffffffffffffffffffffffffffffffff1602179055508173ffffffffffffffffffffffffffffffffffffffff168173ffffffffffffffffffffffffffffffffffffffff167f8be0079c531659141344cd1fd0a4f28419497f9722a3daafe3b4186f6b6457e060405160405180910390a35050565b6000604051905090565b600080fd5b600080fd5b600080fd5b600080fd5b6000601f19601f8301169050919050565b7f4e487b7100000000000000000000000000000000000000000000000000000000600052604160045260246000fd5b620001e38262000198565b810181811067ffffffffffffffff82111715620002055762000204620001a9565b5b80604052505050565b60006200021a6200017a565b9050620002288282620001d8565b919050565b600067ffffffffffffffff8211156200024b576200024a620001a9565b5b620002568262000198565b9050602081019050919050565b60005b838110156200028357808201518184015260208101905062000266565b60008484015250505050565b6000620002a6620002a0846200022d565b6200020e565b905082815260208101848484011115620002c557620002c462000193565b5b620002d284828562000263565b509392505050565b600082601f830112620002f257620002f16200018e565b5b8151620003048482602086016200028f565b91505092915050565b60008060006060848603121562000329576200032862000184565b5b600084015167ffffffffffffffff8111156200034a576200034962000189565b5b6200035886828701620002da565b935050602084015167ffffffffffffffff8111156200037c576200037b62000189565b5b6200038a86828701620002da565b925050604084015167ffffffffffffffff811115620003ae57620003ad62000189565b5b620003bc86828701620002da565b9150509250925092565b600081519050919050565b7f4e487b7100000000000000000000000000000000000000000000000000000000600052602260045260246000fd5b600060028204905060018216806200041957607f821691505b6020821081036200042f576200042e620003d1565b5b50919050565b60008190508160005260206000209050919050565b60006020601f8301049050919050565b600082821b905092915050565b600060088302620004997fffffffffffffffffffffffffffffffffffffffffffffffffffffffffffffffff826200045a565b620004a586836200045a565b95508019841693508086168417925050509392505050565b6000819050919050565b6000819050919050565b6000620004f2620004ec620004e684620004bd565b620004c7565b620004bd565b9050919050565b6000819050919050565b6200050e83620004d1565b620005266200051d82620004f9565b84845462000467565b825550505050565b600090565b6200053d6200052e565b6200054a81848462000503565b505050565b5b8181101562000572576200056660008262000533565b60018101905062000550565b5050565b601f821115620005c1576200058b8162000435565b62000596846200044a565b81016020851015620005a6578190505b620005be620005b5856200044a565b8301826200054f565b50505b505050565b600082821c905092915050565b6000620005e660001984600802620005c6565b1980831691505092915050565b6000620006018383620005d3565b9150826002028217905092915050565b6200061c82620003c6565b67ffffffffffffffff811115620006385762000637620001a9565b5b62000644825462000400565b6200065182828562000576565b600060209050601f83116001811462000689576000841562000674578287015190505b620006808582620005f3565b865550620006f0565b601f198416620006998662000435565b60005b82811015620006c3578489015182556001820191506020850194506020810190506200069c565b86831015620006e35784890151620006df601f891682620005d3565b8355505b6001600288020188555050505b505050505050565b612dd980620007086000396000f3fe608060405234801561001057600080fd5b50600436106101215760003560e01c80636c0360eb116100ad57806395d89b411161007157806395d89b411461032a578063a9d0227214610348578063c87b56dd14610366578063d6c9516f14610396578063f2fde38b146103b457610121565b80636c0360eb1461029657806370a08231146102b4578063715018a6146102e45780637a586b9d146102ee5780638da5cb5b1461030c57610121565b806322cc78d4116100f457806322cc78d4146101c557806324b4e187146101f55780635dde5310146102115780635f24201c1461022f5780636352211e1461026657610121565b806306fdde031461012657806314a81c1414610144578063181f51c6146101625780631b3784a114610192575b600080fd5b61012e6103d0565b60405161013b9190611a8f565b60405180910390f35b61014c610462565b6040516101599190611aca565b60405180910390f35b61017c60048036038101906101779190611c66565b6104ac565b6040516101899190611aca565b60405180910390f35b6101ac60048036038101906101a79190611d4f565b610626565b6040516101bc9493929190611d8b565b60405180910390f35b6101df60048036038101906101da9190611dde565b610773565b6040516101ec9190611aca565b60405180910390f35b61020f600480360381019061020a9190611e66565b610b16565b005b610219610c6a565b6040516102269190611aca565b60405180910390f35b61024960048036038101906102449190611e66565b610c70565b60405161025d989796959493929190611e93565b60405180910390f35b610280600480360381019061027b9190611e66565b610e6d565b60405161028d9190611f35565b60405180910390f35b61029e610f1e565b6040516102ab9190611a8f565b60405180910390f35b6102ce60048036038101906102c99190611d4f565b610fb0565b6040516102db9190611aca565b60405180910390f35b6102ec611067565b005b6102f661107b565b6040516103039190612138565b60405180910390f35b6103146112d4565b6040516103219190611f35565b60405180910390f35b6103326112fe565b60405161033f9190611a8f565b60405180910390f35b610350611390565b60405161035d9190611aca565b60405180910390f35b610380600480360381019061037b9190611e66565b611396565b60405161038d9190611a8f565b60405180910390f35b61039e61155a565b6040516103ab9190611aca565b60405180910390f35b6103ce60048036038101906103c99190611d4f565b611562565b005b6060600080546103df90612189565b80601f016020809104026020016040519081016040528092919081815260200182805461040b90612189565b80156104585780601f1061042d57610100808354040283529160200191610458565b820191906000526020600020905b81548152906001019060200180831161043b57829003601f168201915b5050505050905090565b6000600a60003373ffffffffffffffffffffffffffffffffffffffff1673ffffffffffffffffffffffffffffffffffffffff16815260200190815260200160002060000154905090565b6000806104b8336115e5565b146104f8576040517f08c379a00000000000000000000000000000000000000000000000000000000081526004016104ef9061222c565b60405180910390fd5b6000600854905060006040518060800160405280838152602001851515815260200187815260200186815250905080600a60003373ffffffffffffffffffffffffffffffffffffffff1673ffffffffffffffffffffffffffffffffffffffff1681526020019081526020016000206000820151816000015560208201518160010160006101000a81548160ff02191690831515021790555060408201518160020190816105a591906123f8565b5060608201518160030190816105bb91906123f8565b50905050600860008154809291906105d2906124f9565b91905055503373ffffffffffffffffffffffffffffffffffffffff167ffa1a6cfc9a3dafde33905ef03f85f0dc18780d146186ff383b9cb7067b36339460405160405180910390a281925050509392505050565b600a6020528060005260406000206000915090508060000154908060010160009054906101000a900460ff169080600201805461066290612189565b80601f016020809104026020016040519081016040528092919081815260200182805461068e90612189565b80156106db5780601f106106b0576101008083540402835291602001916106db565b820191906000526020600020905b8154815290600101906020018083116106be57829003601f168201915b5050505050908060030180546106f090612189565b80601f016020809104026020016040519081016040528092919081815260200182805461071c90612189565b80156107695780601f1061073e57610100808354040283529160200191610769565b820191906000526020600020905b81548152906001019060200180831161074c57829003601f168201915b5050505050905084565b60008061077f336115e5565b036107bf576040517f08c379a00000000000000000000000000000000000000000000000000000000081526004016107b6906125b3565b60405180910390fd5b6000604051806101000160405280600754815260200142815260200160008152602001600a60003373ffffffffffffffffffffffffffffffffffffffff1673ffffffffffffffffffffffffffffffffffffffff1681526020019081526020016000206000015481526020018415158152602001858152602001600a60003373ffffffffffffffffffffffffffffffffffffffff1673ffffffffffffffffffffffffffffffffffffffff168152602001908152602001600020600201805461088590612189565b80601f01602080910402602001604051908101604052809291908181526020018280546108b190612189565b80156108fe5780601f106108d3576101008083540402835291602001916108fe565b820191906000526020600020905b8154815290600101906020018083116108e157829003601f168201915b50505050508152602001600a60003373ffffffffffffffffffffffffffffffffffffffff1673ffffffffffffffffffffffffffffffffffffffff168152602001908152602001600020600301805461095590612189565b80601f016020809104026020016040519081016040528092919081815260200182805461098190612189565b80156109ce5780601f106109a3576101008083540402835291602001916109ce565b820191906000526020600020905b8154815290600101906020018083116109b157829003601f168201915b5050505050815250905060098190806001815401808255809150506001900390600052602060002090600802016000909190919091506000820151816000015560208201518160010155604082015181600201556060820151816003015560808201518160040160006101000a81548160ff02191690831515021790555060a0820151816005019081610a6191906123f8565b5060c0820151816006019081610a7791906123f8565b5060e0820151816007019081610a8d91906123f8565b505050610a9c33600754611631565b610aa8600754856117da565b6000600754905060076000815480929190610ac2906124f9565b9190505550803373ffffffffffffffffffffffffffffffffffffffff167f24bf55b6334e191fa1f43840390bd28f8494121c520aa3e68bb0ebeda72fc73a60405160405180910390a3809250505092915050565b610b1e611847565b6007548110610b62576040517f08c379a0000000000000000000000000000000000000000000000000000000008152600401610b5990612645565b60405180910390fd5b600060098281548110610b7857610b77612665565b5b906000526020600020906008020190506000816002015414610bcf576040517f08c379a0000000000000000000000000000000000000000000000000000000008152600401610bc690612706565b60405180910390fd5b60004290506000826001015482610be69190612726565b9050630784ce008110610c2e576040517f08c379a0000000000000000000000000000000000000000000000000000000008152600401610c25906127cc565b60405180910390fd5b818360020181905550837f0932d451e59d34d7cd8898a20195e7c35c379e21072139df8314caa63035194d60405160405180910390a250505050565b60085481565b60098181548110610c8057600080fd5b90600052602060002090600802016000915090508060000154908060010154908060020154908060030154908060040160009054906101000a900460ff1690806005018054610cce90612189565b80601f0160208091040260200160405190810160405280929190818152602001828054610cfa90612189565b8015610d475780601f10610d1c57610100808354040283529160200191610d47565b820191906000526020600020905b815481529060010190602001808311610d2a57829003601f168201915b505050505090806006018054610d5c90612189565b80601f0160208091040260200160405190810160405280929190818152602001828054610d8890612189565b8015610dd55780601f10610daa57610100808354040283529160200191610dd5565b820191906000526020600020905b815481529060010190602001808311610db857829003601f168201915b505050505090806007018054610dea90612189565b80601f0160208091040260200160405190810160405280929190818152602001828054610e1690612189565b8015610e635780601f10610e3857610100808354040283529160200191610e63565b820191906000526020600020905b815481529060010190602001808311610e4657829003601f168201915b5050505050905088565b6000806003600084815260200190815260200160002060009054906101000a900473ffffffffffffffffffffffffffffffffffffffff169050600073ffffffffffffffffffffffffffffffffffffffff168173ffffffffffffffffffffffffffffffffffffffff1603610f15576040517f08c379a0000000000000000000000000000000000000000000000000000000008152600401610f0c9061285e565b60405180910390fd5b80915050919050565b606060028054610f2d90612189565b80601f0160208091040260200160405190810160405280929190818152602001828054610f5990612189565b8015610fa65780601f10610f7b57610100808354040283529160200191610fa6565b820191906000526020600020905b815481529060010190602001808311610f8957829003601f168201915b5050505050905090565b60008073ffffffffffffffffffffffffffffffffffffffff168273ffffffffffffffffffffffffffffffffffffffff1603611020576040517f08c379a0000000000000000000000000000000000000000000000000000000008152600401611017906128f0565b60405180910390fd5b600460008373ffffffffffffffffffffffffffffffffffffffff1673ffffffffffffffffffffffffffffffffffffffff168152602001908152602001600020549050919050565b61106f611847565b61107960006118c5565b565b60606009805480602002602001604051908101604052809291908181526020016000905b828210156112cb578382906000526020600020906008020160405180610100016040529081600082015481526020016001820154815260200160028201548152602001600382015481526020016004820160009054906101000a900460ff1615151515815260200160058201805461111690612189565b80601f016020809104026020016040519081016040528092919081815260200182805461114290612189565b801561118f5780601f106111645761010080835404028352916020019161118f565b820191906000526020600020905b81548152906001019060200180831161117257829003601f168201915b505050505081526020016006820180546111a890612189565b80601f01602080910402602001604051908101604052809291908181526020018280546111d490612189565b80156112215780601f106111f657610100808354040283529160200191611221565b820191906000526020600020905b81548152906001019060200180831161120457829003601f168201915b5050505050815260200160078201805461123a90612189565b80601f016020809104026020016040519081016040528092919081815260200182805461126690612189565b80156112b35780601f10611288576101008083540402835291602001916112b3565b820191906000526020600020905b81548152906001019060200180831161129657829003601f168201915b5050505050815250508152602001906001019061109f565b50505050905090565b6000600660009054906101000a900473ffffffffffffffffffffffffffffffffffffffff16905090565b60606001805461130d90612189565b80601f016020809104026020016040519081016040528092919081815260200182805461133990612189565b80156113865780601f1061135b57610100808354040283529160200191611386565b820191906000526020600020905b81548152906001019060200180831161136957829003601f168201915b5050505050905090565b60075481565b60606113a18261198b565b6113e0576040517f08c379a00000000000000000000000000000000000000000000000000000000081526004016113d790612982565b60405180910390fd5b600060056000848152602001908152602001600020805461140090612189565b80601f016020809104026020016040519081016040528092919081815260200182805461142c90612189565b80156114795780601f1061144e57610100808354040283529160200191611479565b820191906000526020600020905b81548152906001019060200180831161145c57829003601f168201915b5050505050905060003073ffffffffffffffffffffffffffffffffffffffff16636c0360eb6040518163ffffffff1660e01b8152600401600060405180830381865afa1580156114cd573d6000803e3d6000fd5b505050506040513d6000823e3d601f19601f820116820180604052508101906114f69190612a12565b9050600081510361150b578192505050611555565b600082511115611540578082604051602001611528929190612a97565b60405160208183030381529060405292505050611555565b60405180602001604052806000815250925050505b919050565b630784ce0081565b61156a611847565b600073ffffffffffffffffffffffffffffffffffffffff168173ffffffffffffffffffffffffffffffffffffffff16036115d9576040517f08c379a00000000000000000000000000000000000000000000000000000000081526004016115d090612b2d565b60405180910390fd5b6115e2816118c5565b50565b6000600a60008373ffffffffffffffffffffffffffffffffffffffff1673ffffffffffffffffffffffffffffffffffffffff168152602001908152602001600020600001549050919050565b600073ffffffffffffffffffffffffffffffffffffffff168273ffffffffffffffffffffffffffffffffffffffff16036116a0576040517f08c379a000000000000000000000000000000000000000000000000000000000815260040161169790612bbf565b60405180910390fd5b6116a98161198b565b156116e9576040517f08c379a00000000000000000000000000000000000000000000000000000000081526004016116e090612c51565b60405180910390fd5b6001600460008473ffffffffffffffffffffffffffffffffffffffff1673ffffffffffffffffffffffffffffffffffffffff16815260200190815260200160002060008282546117399190612c71565b92505081905550816003600083815260200190815260200160002060006101000a81548173ffffffffffffffffffffffffffffffffffffffff021916908373ffffffffffffffffffffffffffffffffffffffff160217905550808273ffffffffffffffffffffffffffffffffffffffff167f24bf55b6334e191fa1f43840390bd28f8494121c520aa3e68bb0ebeda72fc73a60405160405180910390a35050565b6117e38261198b565b611822576040517f08c379a000000000000000000000000000000000000000000000000000000000815260040161181990612d17565b60405180910390fd5b8060056000848152602001908152602001600020908161184291906123f8565b505050565b61184f6119f7565b73ffffffffffffffffffffffffffffffffffffffff1661186d6112d4565b73ffffffffffffffffffffffffffffffffffffffff16146118c3576040517f08c379a00000000000000000000000000000000000000000000000000000000081526004016118ba90612d83565b60405180910390fd5b565b6000600660009054906101000a900473ffffffffffffffffffffffffffffffffffffffff16905081600660006101000a81548173ffffffffffffffffffffffffffffffffffffffff021916908373ffffffffffffffffffffffffffffffffffffffff1602179055508173ffffffffffffffffffffffffffffffffffffffff168173ffffffffffffffffffffffffffffffffffffffff167f8be0079c531659141344cd1fd0a4f28419497f9722a3daafe3b4186f6b6457e060405160405180910390a35050565b60008073ffffffffffffffffffffffffffffffffffffffff166003600084815260200190815260200160002060009054906101000a900473ffffffffffffffffffffffffffffffffffffffff1673ffffffffffffffffffffffffffffffffffffffff1614159050919050565b600033905090565b600081519050919050565b600082825260208201905092915050565b60005b83811015611a39578082015181840152602081019050611a1e565b60008484015250505050565b6000601f19601f8301169050919050565b6000611a61826119ff565b611a6b8185611a0a565b9350611a7b818560208601611a1b565b611a8481611a45565b840191505092915050565b60006020820190508181036000830152611aa98184611a56565b905092915050565b6000819050919050565b611ac481611ab1565b82525050565b6000602082019050611adf6000830184611abb565b92915050565b6000604051905090565b600080fd5b600080fd5b600080fd5b600080fd5b7f4e487b7100000000000000000000000000000000000000000000000000000000600052604160045260246000fd5b611b3b82611a45565b810181811067ffffffffffffffff82111715611b5a57611b59611b03565b5b80604052505050565b6000611b6d611ae5565b9050611b798282611b32565b919050565b600067ffffffffffffffff821115611b9957611b98611b03565b5b611ba282611a45565b9050602081019050919050565b82818337600083830152505050565b6000611bd1611bcc84611b7e565b611b63565b905082815260208101848484011115611bed57611bec611afe565b5b611bf8848285611baf565b509392505050565b600082601f830112611c1557611c14611af9565b5b8135611c25848260208601611bbe565b91505092915050565b60008115159050919050565b611c4381611c2e565b8114611c4e57600080fd5b50565b600081359050611c6081611c3a565b92915050565b600080600060608486031215611c7f57611c7e611aef565b5b600084013567ffffffffffffffff811115611c9d57611c9c611af4565b5b611ca986828701611c00565b935050602084013567ffffffffffffffff811115611cca57611cc9611af4565b5b611cd686828701611c00565b9250506040611ce786828701611c51565b9150509250925092565b600073ffffffffffffffffffffffffffffffffffffffff82169050919050565b6000611d1c82611cf1565b9050919050565b611d2c81611d11565b8114611d3757600080fd5b50565b600081359050611d4981611d23565b92915050565b600060208284031215611d6557611d64611aef565b5b6000611d7384828501611d3a565b91505092915050565b611d8581611c2e565b82525050565b6000608082019050611da06000830187611abb565b611dad6020830186611d7c565b8181036040830152611dbf8185611a56565b90508181036060830152611dd38184611a56565b905095945050505050565b60008060408385031215611df557611df4611aef565b5b600083013567ffffffffffffffff811115611e1357611e12611af4565b5b611e1f85828601611c00565b9250506020611e3085828601611c51565b9150509250929050565b611e4381611ab1565b8114611e4e57600080fd5b50565b600081359050611e6081611e3a565b92915050565b600060208284031215611e7c57611e7b611aef565b5b6000611e8a84828501611e51565b91505092915050565b600061010082019050611ea9600083018b611abb565b611eb6602083018a611abb565b611ec36040830189611abb565b611ed06060830188611abb565b611edd6080830187611d7c565b81810360a0830152611eef8186611a56565b905081810360c0830152611f038185611a56565b905081810360e0830152611f178184611a56565b90509998505050505050505050565b611f2f81611d11565b82525050565b6000602082019050611f4a6000830184611f26565b92915050565b600081519050919050565b600082825260208201905092915050565b6000819050602082019050919050565b611f8581611ab1565b82525050565b611f9481611c2e565b82525050565b600082825260208201905092915050565b6000611fb6826119ff565b611fc08185611f9a565b9350611fd0818560208601611a1b565b611fd981611a45565b840191505092915050565b600061010083016000830151611ffd6000860182611f7c565b5060208301516120106020860182611f7c565b5060408301516120236040860182611f7c565b5060608301516120366060860182611f7c565b5060808301516120496080860182611f8b565b5060a083015184820360a08601526120618282611fab565b91505060c083015184820360c086015261207b8282611fab565b91505060e083015184820360e08601526120958282611fab565b9150508091505092915050565b60006120ae8383611fe4565b905092915050565b6000602082019050919050565b60006120ce82611f50565b6120d88185611f5b565b9350836020820285016120ea85611f6c565b8060005b85811015612126578484038952815161210785826120a2565b9450612112836120b6565b925060208a019950506001810190506120ee565b50829750879550505050505092915050565b6000602082019050818103600083015261215281846120c3565b905092915050565b7f4e487b7100000000000000000000000000000000000000000000000000000000600052602260045260246000fd5b600060028204905060018216806121a157607f821691505b6020821081036121b4576121b361215a565b5b50919050565b7f4572726f723a20456c6563746f72616c4d616e6167657220617574686f72206160008201527f6c72656164792065786973747300000000000000000000000000000000000000602082015250565b6000612216602d83611a0a565b9150612221826121ba565b604082019050919050565b6000602082019050818103600083015261224581612209565b9050919050565b60008190508160005260206000209050919050565b60006020601f8301049050919050565b600082821b905092915050565b6000600883026122ae7fffffffffffffffffffffffffffffffffffffffffffffffffffffffffffffffff82612271565b6122b88683612271565b95508019841693508086168417925050509392505050565b6000819050919050565b60006122f56122f06122eb84611ab1565b6122d0565b611ab1565b9050919050565b6000819050919050565b61230f836122da565b61232361231b826122fc565b84845461227e565b825550505050565b600090565b61233861232b565b612343818484612306565b505050565b5b818110156123675761235c600082612330565b600181019050612349565b5050565b601f8211156123ac5761237d8161224c565b61238684612261565b81016020851015612395578190505b6123a96123a185612261565b830182612348565b50505b505050565b600082821c905092915050565b60006123cf600019846008026123b1565b1980831691505092915050565b60006123e883836123be565b9150826002028217905092915050565b612401826119ff565b67ffffffffffffffff81111561241a57612419611b03565b5b6124248254612189565b61242f82828561236b565b600060209050601f8311600181146124625760008415612450578287015190505b61245a85826123dc565b8655506124c2565b601f1984166124708661224c565b60005b8281101561249857848901518255600182019150602085019450602081019050612473565b868310156124b557848901516124b1601f8916826123be565b8355505b6001600288020188555050505b505050505050565b7f4e487b7100000000000000000000000000000000000000000000000000000000600052601160045260246000fd5b600061250482611ab1565b91507fffffffffffffffffffffffffffffffffffffffffffffffffffffffffffffffff8203612536576125356124ca565b5b600182019050919050565b7f4572726f723a20456c6563746f72616c4d616e6167657220617574686f72206460008201527f6f6573206e6f7420657869737400000000000000000000000000000000000000602082015250565b600061259d602d83611a0a565b91506125a882612541565b604082019050919050565b600060208201905081810360008301526125cc81612590565b9050919050565b7f4572726f723a20656c6563746f72616c2070726f6d69736520646f6573206e6f60008201527f7420657869737473000000000000000000000000000000000000000000000000602082015250565b600061262f602883611a0a565b915061263a826125d3565b604082019050919050565b6000602082019050818103600083015261265e81612622565b9050919050565b7f4e487b7100000000000000000000000000000000000000000000000000000000600052603260045260246000fd5b7f4572726f723a20656c6563746f72616c2070726f6d69736520616c726561647960008201527f20617070726f7665640000000000000000000000000000000000000000000000602082015250565b60006126f0602983611a0a565b91506126fb82612694565b604082019050919050565b6000602082019050818103600083015261271f816126e3565b9050919050565b600061273182611ab1565b915061273c83611ab1565b9250828203905081811115612754576127536124ca565b5b92915050565b7f4572726f723a2061206c656769736c617475726520616c726561647920676f6e60008201527f6500000000000000000000000000000000000000000000000000000000000000602082015250565b60006127b6602183611a0a565b91506127c18261275a565b604082019050919050565b600060208201905081810360008301526127e5816127a9565b9050919050565b7f456c6563746f72616c50726f6d6973653a206f776e657220717565727920666f60008201527f72206e6f6e6578697374656e7420746f6b656e00000000000000000000000000602082015250565b6000612848603383611a0a565b9150612853826127ec565b604082019050919050565b600060208201905081810360008301526128778161283b565b9050919050565b7f456c6563746f72616c50726f6d6973653a206f776e6572206973207a65726f2060008201527f6164647265737300000000000000000000000000000000000000000000000000602082015250565b60006128da602783611a0a565b91506128e58261287e565b604082019050919050565b60006020820190508181036000830152612909816128cd565b9050919050565b7f456c6563746f72616c50726f6d6973653a2055524920717565727920666f722060008201527f6e6f6e6578697374656e7420746f6b656e000000000000000000000000000000602082015250565b600061296c603183611a0a565b915061297782612910565b604082019050919050565b6000602082019050818103600083015261299b8161295f565b9050919050565b60006129b56129b084611b7e565b611b63565b9050828152602081018484840111156129d1576129d0611afe565b5b6129dc848285611a1b565b509392505050565b600082601f8301126129f9576129f8611af9565b5b8151612a098482602086016129a2565b91505092915050565b600060208284031215612a2857612a27611aef565b5b600082015167ffffffffffffffff811115612a4657612a45611af4565b5b612a52848285016129e4565b91505092915050565b600081905092915050565b6000612a71826119ff565b612a7b8185612a5b565b9350612a8b818560208601611a1b565b80840191505092915050565b6000612aa38285612a66565b9150612aaf8284612a66565b91508190509392505050565b7f4f776e61626c653a206e6577206f776e657220697320746865207a65726f206160008201527f6464726573730000000000000000000000000000000000000000000000000000602082015250565b6000612b17602683611a0a565b9150612b2282612abb565b604082019050919050565b60006020820190508181036000830152612b4681612b0a565b9050919050565b7f456c6563746f72616c50726f6d6973653a206d696e7420746f20746865207a6560008201527f726f206164647265737300000000000000000000000000000000000000000000602082015250565b6000612ba9602a83611a0a565b9150612bb482612b4d565b604082019050919050565b60006020820190508181036000830152612bd881612b9c565b9050919050565b7f456c6563746f72616c50726f6d6973653a20746f6b656e20616c72656164792060008201527f6d696e7465640000000000000000000000000000000000000000000000000000602082015250565b6000612c3b602683611a0a565b9150612c4682612bdf565b604082019050919050565b60006020820190508181036000830152612c6a81612c2e565b9050919050565b6000612c7c82611ab1565b9150612c8783611ab1565b9250828201905080821115612c9f57612c9e6124ca565b5b92915050565b7f456c6563746f72616c50726f6d6973653a2055524920736574206f66206e6f6e60008201527f6578697374656e7420746f6b656e000000000000000000000000000000000000602082015250565b6000612d01602e83611a0a565b9150612d0c82612ca5565b604082019050919050565b60006020820190508181036000830152612d3081612cf4565b9050919050565b7f4f776e61626c653a2063616c6c6572206973206e6f7420746865206f776e6572600082015250565b6000612d6d602083611a0a565b9150612d7882612d37565b602082019050919050565b60006020820190508181036000830152612d9c81612d60565b905091905056fea264697066735822122028ea71798dd974de5d980fa9fc35a03053b7309a154207f435f776b22c6752da64736f6c63430008110033",
  "linkReferences": {},
  "deployedLinkReferences": {}
}