{
  "_format": "hh-sol-artifact-1",
  "contractName": "ElectoralManager",
  "sourceName": "contracts/ElectoralManager.sol",
  "abi": [
    {
      "inputs": [],
      "stateMutability": "nonpayable",
      "type": "constructor"
    },
    {
      "anonymous": false,
      "inputs": [
        {
          "indexed": true,
          "internalType": "address",
          "name": "from",
          "type": "address"
        },
        {
          "indexed": true,
          "internalType": "uint256",
          "name": "tokenId",
          "type": "uint256"
        }
      ],
      "name": "ApprovedPromise",
      "type": "event"
    },
    {
      "anonymous": false,
      "inputs": [
        {
          "indexed": true,
          "internalType": "address",
          "name": "from",
          "type": "address"
        },
        {
          "indexed": true,
          "internalType": "uint256",
          "name": "tokenId",
          "type": "uint256"
        }
      ],
      "name": "CreatedPromise",
      "type": "event"
    },
    {
      "anonymous": false,
      "inputs": [
        {
          "indexed": true,
          "internalType": "address",
          "name": "owner",
          "type": "address"
        }
      ],
      "name": "NewPromiser",
      "type": "event"
    },
    {
      "inputs": [
        {
          "internalType": "address",
          "name": "_owner",
          "type": "address"
        }
      ],
      "name": "balanceOf",
      "outputs": [
        {
          "internalType": "uint256",
          "name": "balance",
          "type": "uint256"
        }
      ],
      "stateMutability": "view",
      "type": "function"
    },
    {
      "inputs": [],
      "name": "baseURI",
      "outputs": [
        {
          "internalType": "string",
          "name": "",
          "type": "string"
        }
      ],
      "stateMutability": "view",
      "type": "function"
    },
    {
      "inputs": [],
      "name": "checkMyIdentifier",
      "outputs": [
        {
          "internalType": "uint256",
          "name": "",
          "type": "uint256"
        }
      ],
      "stateMutability": "view",
      "type": "function"
    },
    {
      "inputs": [],
      "name": "counterElectoralPromises",
      "outputs": [
        {
          "internalType": "uint256",
          "name": "",
          "type": "uint256"
        }
      ],
      "stateMutability": "view",
      "type": "function"
    },
    {
      "inputs": [],
      "name": "counterPromisers",
      "outputs": [
        {
          "internalType": "uint256",
          "name": "",
          "type": "uint256"
        }
      ],
      "stateMutability": "view",
      "type": "function"
    },
    {
      "inputs": [
        {
          "internalType": "string",
          "name": "_tokenURI",
          "type": "string"
        },
        {
          "internalType": "bool",
          "name": "_isObligatory",
          "type": "bool"
        },
        {
          "internalType": "uint256[]",
          "name": "_relationalPromises",
          "type": "uint256[]"
        }
      ],
      "name": "createElectoralPromise",
      "outputs": [
        {
          "internalType": "uint256",
          "name": "",
          "type": "uint256"
        }
      ],
      "stateMutability": "nonpayable",
      "type": "function"
    },
    {
      "inputs": [],
      "name": "getAllPromises",
      "outputs": [
        {
          "components": [
            {
              "internalType": "uint256",
              "name": "id",
              "type": "uint256"
            },
            {
              "internalType": "uint256",
              "name": "created",
              "type": "uint256"
            },
            {
              "internalType": "uint256",
              "name": "idAuthor",
              "type": "uint256"
            },
            {
              "internalType": "bool",
              "name": "isObligatory",
              "type": "bool"
            },
            {
              "internalType": "bool",
              "name": "isApproved",
              "type": "bool"
            },
            {
              "internalType": "string",
              "name": "tokenUri",
              "type": "string"
            },
            {
              "internalType": "string",
              "name": "nameAuthor",
              "type": "string"
            },
            {
              "internalType": "uint256[]",
              "name": "relationalPromises",
              "type": "uint256[]"
            }
          ],
          "internalType": "struct ElectoralManager.DataPromise[]",
          "name": "",
          "type": "tuple[]"
        }
      ],
      "stateMutability": "view",
      "type": "function"
    },
    {
      "inputs": [
        {
          "internalType": "uint256",
          "name": "",
          "type": "uint256"
        }
      ],
      "name": "listElectoralPromises",
      "outputs": [
        {
          "internalType": "uint256",
          "name": "id",
          "type": "uint256"
        },
        {
          "internalType": "uint256",
          "name": "created",
          "type": "uint256"
        },
        {
          "internalType": "uint256",
          "name": "idAuthor",
          "type": "uint256"
        },
        {
          "internalType": "bool",
          "name": "isObligatory",
          "type": "bool"
        },
        {
          "internalType": "bool",
          "name": "isApproved",
          "type": "bool"
        },
        {
          "internalType": "string",
          "name": "tokenUri",
          "type": "string"
        },
        {
          "internalType": "string",
          "name": "nameAuthor",
          "type": "string"
        }
      ],
      "stateMutability": "view",
      "type": "function"
    },
    {
      "inputs": [
        {
          "internalType": "address",
          "name": "",
          "type": "address"
        }
      ],
      "name": "listPromisers",
      "outputs": [
        {
          "internalType": "uint256",
          "name": "idAuthor",
          "type": "uint256"
        },
        {
          "internalType": "string",
          "name": "completeName",
          "type": "string"
        },
        {
          "internalType": "bool",
          "name": "isPoliticalParty",
          "type": "bool"
        }
      ],
      "stateMutability": "view",
      "type": "function"
    },
    {
      "inputs": [],
      "name": "name",
      "outputs": [
        {
          "internalType": "string",
          "name": "",
          "type": "string"
        }
      ],
      "stateMutability": "view",
      "type": "function"
    },
    {
      "inputs": [
        {
          "internalType": "uint256",
          "name": "tokenId",
          "type": "uint256"
        }
      ],
      "name": "ownerOf",
      "outputs": [
        {
          "internalType": "address",
          "name": "owner",
          "type": "address"
        }
      ],
      "stateMutability": "view",
      "type": "function"
    },
    {
      "inputs": [
        {
          "internalType": "string",
          "name": "_completeName",
          "type": "string"
        },
        {
          "internalType": "bool",
          "name": "_isPoliticalParty",
          "type": "bool"
        }
      ],
      "name": "registerUser",
      "outputs": [
        {
          "internalType": "uint256",
          "name": "",
          "type": "uint256"
        }
      ],
      "stateMutability": "nonpayable",
      "type": "function"
    },
    {
      "inputs": [],
      "name": "symbol",
      "outputs": [
        {
          "internalType": "string",
          "name": "",
          "type": "string"
        }
      ],
      "stateMutability": "view",
      "type": "function"
    },
    {
      "inputs": [
        {
          "internalType": "uint256",
          "name": "tokenId",
          "type": "uint256"
        }
      ],
      "name": "tokenURI",
      "outputs": [
        {
          "internalType": "string",
          "name": "",
          "type": "string"
        }
      ],
      "stateMutability": "view",
      "type": "function"
    }
  ],
  "bytecode": "0x60806040523480156200001157600080fd5b506040518060400160405280600a81526020017f466f6f6c4d654f6e6365000000000000000000000000000000000000000000008152506040518060400160405280600381526020017f464d4f00000000000000000000000000000000000000000000000000000000008152506040518060400160405280600781526020017f697066733a2f2f000000000000000000000000000000000000000000000000008152508260009081620000c591906200037d565b508160019081620000d791906200037d565b508060029081620000e991906200037d565b505050506000600781905550600160088190555062000464565b600081519050919050565b7f4e487b7100000000000000000000000000000000000000000000000000000000600052604160045260246000fd5b7f4e487b7100000000000000000000000000000000000000000000000000000000600052602260045260246000fd5b600060028204905060018216806200018557607f821691505b6020821081036200019b576200019a6200013d565b5b50919050565b60008190508160005260206000209050919050565b60006020601f8301049050919050565b600082821b905092915050565b600060088302620002057fffffffffffffffffffffffffffffffffffffffffffffffffffffffffffffffff82620001c6565b620002118683620001c6565b95508019841693508086168417925050509392505050565b6000819050919050565b6000819050919050565b60006200025e62000258620002528462000229565b62000233565b62000229565b9050919050565b6000819050919050565b6200027a836200023d565b62000292620002898262000265565b848454620001d3565b825550505050565b600090565b620002a96200029a565b620002b68184846200026f565b505050565b5b81811015620002de57620002d26000826200029f565b600181019050620002bc565b5050565b601f8211156200032d57620002f781620001a1565b6200030284620001b6565b8101602085101562000312578190505b6200032a6200032185620001b6565b830182620002bb565b50505b505050565b600082821c905092915050565b6000620003526000198460080262000332565b1980831691505092915050565b60006200036d83836200033f565b9150826002028217905092915050565b620003888262000103565b67ffffffffffffffff811115620003a457620003a36200010e565b5b620003b082546200016c565b620003bd828285620002e2565b600060209050601f831160018114620003f55760008415620003e0578287015190505b620003ec85826200035f565b8655506200045c565b601f1984166200040586620001a1565b60005b828110156200042f5784890151825560018201915060208501945060208101905062000408565b868310156200044f57848901516200044b601f8916826200033f565b8355505b6001600288020188555050505b505050505050565b61265380620004746000396000f3fe608060405234801561001057600080fd5b50600436106100ea5760003560e01c806370a082311161008c57806395d89b411161006657806395d89b411461027d578063a9d022721461029b578063c87b56dd146102b9578063d2e6116b146102e9576100ea565b806370a08231146101ff57806379b233db1461022f5780637a586b9d1461025f576100ea565b80635dde5310116100c85780635dde5310146101615780635e2a67a91461017f5780636352211e146101b15780636c0360eb146101e1576100ea565b8063043d9b24146100ef57806306fdde031461012557806314a81c1414610143575b600080fd5b6101096004803603810190610104919061148e565b610319565b60405161011c9796959493929190611575565b60405180910390f35b61012d610495565b60405161013a91906115f2565b60405180910390f35b61014b610527565b6040516101589190611614565b60405180910390f35b610169610571565b6040516101769190611614565b60405180910390f35b6101996004803603810190610194919061168d565b610577565b6040516101a8939291906116ba565b60405180910390f35b6101cb60048036038101906101c6919061148e565b610636565b6040516101d89190611707565b60405180910390f35b6101e96106e7565b6040516101f691906115f2565b60405180910390f35b6102196004803603810190610214919061168d565b610779565b6040516102269190611614565b60405180910390f35b61024960048036038101906102449190611883565b610830565b6040516102569190611614565b60405180910390f35b61026761098b565b6040516102749190611b76565b60405180910390f35b610285610bbb565b60405161029291906115f2565b60405180910390f35b6102a3610c4d565b6040516102b09190611614565b60405180910390f35b6102d360048036038101906102ce919061148e565b610c53565b6040516102e091906115f2565b60405180910390f35b61030360048036038101906102fe9190611c60565b610e17565b6040516103109190611614565b60405180910390f35b6006818154811061032957600080fd5b90600052602060002090600702016000915090508060000154908060010154908060020154908060030160009054906101000a900460ff16908060030160019054906101000a900460ff169080600401805461038490611d1a565b80601f01602080910402602001604051908101604052809291908181526020018280546103b090611d1a565b80156103fd5780601f106103d2576101008083540402835291602001916103fd565b820191906000526020600020905b8154815290600101906020018083116103e057829003601f168201915b50505050509080600501805461041290611d1a565b80601f016020809104026020016040519081016040528092919081815260200182805461043e90611d1a565b801561048b5780601f106104605761010080835404028352916020019161048b565b820191906000526020600020905b81548152906001019060200180831161046e57829003601f168201915b5050505050905087565b6060600080546104a490611d1a565b80601f01602080910402602001604051908101604052809291908181526020018280546104d090611d1a565b801561051d5780601f106104f25761010080835404028352916020019161051d565b820191906000526020600020905b81548152906001019060200180831161050057829003601f168201915b5050505050905090565b6000600960003373ffffffffffffffffffffffffffffffffffffffff1673ffffffffffffffffffffffffffffffffffffffff16815260200190815260200160002060000154905090565b60085481565b60096020528060005260406000206000915090508060000154908060010180546105a090611d1a565b80601f01602080910402602001604051908101604052809291908181526020018280546105cc90611d1a565b80156106195780601f106105ee57610100808354040283529160200191610619565b820191906000526020600020905b8154815290600101906020018083116105fc57829003601f168201915b5050505050908060020160009054906101000a900460ff16905083565b6000806003600084815260200190815260200160002060009054906101000a900473ffffffffffffffffffffffffffffffffffffffff169050600073ffffffffffffffffffffffffffffffffffffffff168173ffffffffffffffffffffffffffffffffffffffff16036106de576040517f08c379a00000000000000000000000000000000000000000000000000000000081526004016106d590611dbd565b60405180910390fd5b80915050919050565b6060600280546106f690611d1a565b80601f016020809104026020016040519081016040528092919081815260200182805461072290611d1a565b801561076f5780601f106107445761010080835404028352916020019161076f565b820191906000526020600020905b81548152906001019060200180831161075257829003601f168201915b5050505050905090565b60008073ffffffffffffffffffffffffffffffffffffffff168273ffffffffffffffffffffffffffffffffffffffff16036107e9576040517f08c379a00000000000000000000000000000000000000000000000000000000081526004016107e090611e4f565b60405180910390fd5b600460008373ffffffffffffffffffffffffffffffffffffffff1673ffffffffffffffffffffffffffffffffffffffff168152602001908152602001600020549050919050565b60008061083c3361110c565b1461087c576040517f08c379a000000000000000000000000000000000000000000000000000000000815260040161087390611ee1565b60405180910390fd5b600060405180606001604052806008548152602001858152602001841515815250905080600960003373ffffffffffffffffffffffffffffffffffffffff1673ffffffffffffffffffffffffffffffffffffffff1681526020019081526020016000206000820151816000015560208201518160010190816108fe91906120ad565b5060408201518160020160006101000a81548160ff02191690831515021790555090505060086000815480929190610935906121ae565b91905055503373ffffffffffffffffffffffffffffffffffffffff167ffa1a6cfc9a3dafde33905ef03f85f0dc18780d146186ff383b9cb7067b36339460405160405180910390a2806000015191505092915050565b60606006805480602002602001604051908101604052809291908181526020016000905b82821015610bb25783829060005260206000209060070201604051806101000160405290816000820154815260200160018201548152602001600282015481526020016003820160009054906101000a900460ff161515151581526020016003820160019054906101000a900460ff16151515158152602001600482018054610a3790611d1a565b80601f0160208091040260200160405190810160405280929190818152602001828054610a6390611d1a565b8015610ab05780601f10610a8557610100808354040283529160200191610ab0565b820191906000526020600020905b815481529060010190602001808311610a9357829003601f168201915b50505050508152602001600582018054610ac990611d1a565b80601f0160208091040260200160405190810160405280929190818152602001828054610af590611d1a565b8015610b425780601f10610b1757610100808354040283529160200191610b42565b820191906000526020600020905b815481529060010190602001808311610b2557829003601f168201915b5050505050815260200160068201805480602002602001604051908101604052809291908181526020018280548015610b9a57602002820191906000526020600020905b815481526020019060010190808311610b86575b505050505081525050815260200190600101906109af565b50505050905090565b606060018054610bca90611d1a565b80601f0160208091040260200160405190810160405280929190818152602001828054610bf690611d1a565b8015610c435780601f10610c1857610100808354040283529160200191610c43565b820191906000526020600020905b815481529060010190602001808311610c2657829003601f168201915b5050505050905090565b60075481565b6060610c5e82611158565b610c9d576040517f08c379a0000000000000000000000000000000000000000000000000000000008152600401610c9490612268565b60405180910390fd5b6000600560008481526020019081526020016000208054610cbd90611d1a565b80601f0160208091040260200160405190810160405280929190818152602001828054610ce990611d1a565b8015610d365780601f10610d0b57610100808354040283529160200191610d36565b820191906000526020600020905b815481529060010190602001808311610d1957829003601f168201915b5050505050905060003073ffffffffffffffffffffffffffffffffffffffff16636c0360eb6040518163ffffffff1660e01b8152600401600060405180830381865afa158015610d8a573d6000803e3d6000fd5b505050506040513d6000823e3d601f19601f82011682018060405250810190610db391906122f8565b90506000815103610dc8578192505050610e12565b600082511115610dfd578082604051602001610de592919061237d565b60405160208183030381529060405292505050610e12565b60405180602001604052806000815250925050505b919050565b600080610e233361110c565b03610e63576040517f08c379a0000000000000000000000000000000000000000000000000000000008152600401610e5a90612413565b60405180910390fd5b60006040518061010001604052806007548152602001428152602001600960003373ffffffffffffffffffffffffffffffffffffffff1673ffffffffffffffffffffffffffffffffffffffff1681526020019081526020016000206000015481526020018515158152602001600015158152602001868152602001600960003373ffffffffffffffffffffffffffffffffffffffff1673ffffffffffffffffffffffffffffffffffffffff1681526020019081526020016000206001018054610f2b90611d1a565b80601f0160208091040260200160405190810160405280929190818152602001828054610f5790611d1a565b8015610fa45780601f10610f7957610100808354040283529160200191610fa4565b820191906000526020600020905b815481529060010190602001808311610f8757829003601f168201915b50505050508152602001848152509050600681908060018154018082558091505060019003906000526020600020906007020160009091909190915060008201518160000155602082015181600101556040820151816002015560608201518160030160006101000a81548160ff02191690831515021790555060808201518160030160016101000a81548160ff02191690831515021790555060a082015181600401908161105391906120ad565b5060c082015181600501908161106991906120ad565b5060e08201518160060190805190602001906110869291906113da565b505050611095336007546111c4565b6110a16007548661136d565b600760008154809291906110b4906121ae565b91905055506007543373ffffffffffffffffffffffffffffffffffffffff167f24bf55b6334e191fa1f43840390bd28f8494121c520aa3e68bb0ebeda72fc73a60405160405180910390a36007549150509392505050565b6000600960008373ffffffffffffffffffffffffffffffffffffffff1673ffffffffffffffffffffffffffffffffffffffff168152602001908152602001600020600001549050919050565b60008073ffffffffffffffffffffffffffffffffffffffff166003600084815260200190815260200160002060009054906101000a900473ffffffffffffffffffffffffffffffffffffffff1673ffffffffffffffffffffffffffffffffffffffff1614159050919050565b600073ffffffffffffffffffffffffffffffffffffffff168273ffffffffffffffffffffffffffffffffffffffff1603611233576040517f08c379a000000000000000000000000000000000000000000000000000000000815260040161122a906124a5565b60405180910390fd5b61123c81611158565b1561127c576040517f08c379a000000000000000000000000000000000000000000000000000000000815260040161127390612537565b60405180910390fd5b6001600460008473ffffffffffffffffffffffffffffffffffffffff1673ffffffffffffffffffffffffffffffffffffffff16815260200190815260200160002060008282546112cc9190612557565b92505081905550816003600083815260200190815260200160002060006101000a81548173ffffffffffffffffffffffffffffffffffffffff021916908373ffffffffffffffffffffffffffffffffffffffff160217905550808273ffffffffffffffffffffffffffffffffffffffff167f24bf55b6334e191fa1f43840390bd28f8494121c520aa3e68bb0ebeda72fc73a60405160405180910390a35050565b61137682611158565b6113b5576040517f08c379a00000000000000000000000000000000000000000000000000000000081526004016113ac906125fd565b60405180910390fd5b806005600084815260200190815260200160002090816113d591906120ad565b505050565b828054828255906000526020600020908101928215611416579160200282015b828111156114155782518255916020019190600101906113fa565b5b5090506114239190611427565b5090565b5b80821115611440576000816000905550600101611428565b5090565b6000604051905090565b600080fd5b600080fd5b6000819050919050565b61146b81611458565b811461147657600080fd5b50565b60008135905061148881611462565b92915050565b6000602082840312156114a4576114a361144e565b5b60006114b284828501611479565b91505092915050565b6114c481611458565b82525050565b60008115159050919050565b6114df816114ca565b82525050565b600081519050919050565b600082825260208201905092915050565b60005b8381101561151f578082015181840152602081019050611504565b60008484015250505050565b6000601f19601f8301169050919050565b6000611547826114e5565b61155181856114f0565b9350611561818560208601611501565b61156a8161152b565b840191505092915050565b600060e08201905061158a600083018a6114bb565b61159760208301896114bb565b6115a460408301886114bb565b6115b160608301876114d6565b6115be60808301866114d6565b81810360a08301526115d0818561153c565b905081810360c08301526115e4818461153c565b905098975050505050505050565b6000602082019050818103600083015261160c818461153c565b905092915050565b600060208201905061162960008301846114bb565b92915050565b600073ffffffffffffffffffffffffffffffffffffffff82169050919050565b600061165a8261162f565b9050919050565b61166a8161164f565b811461167557600080fd5b50565b60008135905061168781611661565b92915050565b6000602082840312156116a3576116a261144e565b5b60006116b184828501611678565b91505092915050565b60006060820190506116cf60008301866114bb565b81810360208301526116e1818561153c565b90506116f060408301846114d6565b949350505050565b6117018161164f565b82525050565b600060208201905061171c60008301846116f8565b92915050565b600080fd5b600080fd5b7f4e487b7100000000000000000000000000000000000000000000000000000000600052604160045260246000fd5b6117648261152b565b810181811067ffffffffffffffff821117156117835761178261172c565b5b80604052505050565b6000611796611444565b90506117a2828261175b565b919050565b600067ffffffffffffffff8211156117c2576117c161172c565b5b6117cb8261152b565b9050602081019050919050565b82818337600083830152505050565b60006117fa6117f5846117a7565b61178c565b90508281526020810184848401111561181657611815611727565b5b6118218482856117d8565b509392505050565b600082601f83011261183e5761183d611722565b5b813561184e8482602086016117e7565b91505092915050565b611860816114ca565b811461186b57600080fd5b50565b60008135905061187d81611857565b92915050565b6000806040838503121561189a5761189961144e565b5b600083013567ffffffffffffffff8111156118b8576118b7611453565b5b6118c485828601611829565b92505060206118d58582860161186e565b9150509250929050565b600081519050919050565b600082825260208201905092915050565b6000819050602082019050919050565b61191481611458565b82525050565b611923816114ca565b82525050565b600082825260208201905092915050565b6000611945826114e5565b61194f8185611929565b935061195f818560208601611501565b6119688161152b565b840191505092915050565b600081519050919050565b600082825260208201905092915050565b6000819050602082019050919050565b60006119ab838361190b565b60208301905092915050565b6000602082019050919050565b60006119cf82611973565b6119d9818561197e565b93506119e48361198f565b8060005b83811015611a155781516119fc888261199f565b9750611a07836119b7565b9250506001810190506119e8565b5085935050505092915050565b600061010083016000830151611a3b600086018261190b565b506020830151611a4e602086018261190b565b506040830151611a61604086018261190b565b506060830151611a74606086018261191a565b506080830151611a87608086018261191a565b5060a083015184820360a0860152611a9f828261193a565b91505060c083015184820360c0860152611ab9828261193a565b91505060e083015184820360e0860152611ad382826119c4565b9150508091505092915050565b6000611aec8383611a22565b905092915050565b6000602082019050919050565b6000611b0c826118df565b611b1681856118ea565b935083602082028501611b28856118fb565b8060005b85811015611b645784840389528151611b458582611ae0565b9450611b5083611af4565b925060208a01995050600181019050611b2c565b50829750879550505050505092915050565b60006020820190508181036000830152611b908184611b01565b905092915050565b600067ffffffffffffffff821115611bb357611bb261172c565b5b602082029050602081019050919050565b600080fd5b6000611bdc611bd784611b98565b61178c565b90508083825260208201905060208402830185811115611bff57611bfe611bc4565b5b835b81811015611c285780611c148882611479565b845260208401935050602081019050611c01565b5050509392505050565b600082601f830112611c4757611c46611722565b5b8135611c57848260208601611bc9565b91505092915050565b600080600060608486031215611c7957611c7861144e565b5b600084013567ffffffffffffffff811115611c9757611c96611453565b5b611ca386828701611829565b9350506020611cb48682870161186e565b925050604084013567ffffffffffffffff811115611cd557611cd4611453565b5b611ce186828701611c32565b9150509250925092565b7f4e487b7100000000000000000000000000000000000000000000000000000000600052602260045260246000fd5b60006002820490506001821680611d3257607f821691505b602082108103611d4557611d44611ceb565b5b50919050565b7f456c6563746f72616c50726f6d6973653a206f776e657220717565727920666f60008201527f72206e6f6e6578697374656e7420746f6b656e00000000000000000000000000602082015250565b6000611da76033836114f0565b9150611db282611d4b565b604082019050919050565b60006020820190508181036000830152611dd681611d9a565b9050919050565b7f456c6563746f72616c50726f6d6973653a206f776e6572206973207a65726f2060008201527f6164647265737300000000000000000000000000000000000000000000000000602082015250565b6000611e396027836114f0565b9150611e4482611ddd565b604082019050919050565b60006020820190508181036000830152611e6881611e2c565b9050919050565b7f456c6563746f72616c4d616e6167657220617574686f7220616c72656164792060008201527f6578697374730000000000000000000000000000000000000000000000000000602082015250565b6000611ecb6026836114f0565b9150611ed682611e6f565b604082019050919050565b60006020820190508181036000830152611efa81611ebe565b9050919050565b60008190508160005260206000209050919050565b60006020601f8301049050919050565b600082821b905092915050565b600060088302611f637fffffffffffffffffffffffffffffffffffffffffffffffffffffffffffffffff82611f26565b611f6d8683611f26565b95508019841693508086168417925050509392505050565b6000819050919050565b6000611faa611fa5611fa084611458565b611f85565b611458565b9050919050565b6000819050919050565b611fc483611f8f565b611fd8611fd082611fb1565b848454611f33565b825550505050565b600090565b611fed611fe0565b611ff8818484611fbb565b505050565b5b8181101561201c57612011600082611fe5565b600181019050611ffe565b5050565b601f8211156120615761203281611f01565b61203b84611f16565b8101602085101561204a578190505b61205e61205685611f16565b830182611ffd565b50505b505050565b600082821c905092915050565b600061208460001984600802612066565b1980831691505092915050565b600061209d8383612073565b9150826002028217905092915050565b6120b6826114e5565b67ffffffffffffffff8111156120cf576120ce61172c565b5b6120d98254611d1a565b6120e4828285612020565b600060209050601f8311600181146121175760008415612105578287015190505b61210f8582612091565b865550612177565b601f19841661212586611f01565b60005b8281101561214d57848901518255600182019150602085019450602081019050612128565b8683101561216a5784890151612166601f891682612073565b8355505b6001600288020188555050505b505050505050565b7f4e487b7100000000000000000000000000000000000000000000000000000000600052601160045260246000fd5b60006121b982611458565b91507fffffffffffffffffffffffffffffffffffffffffffffffffffffffffffffffff82036121eb576121ea61217f565b5b600182019050919050565b7f456c6563746f72616c50726f6d6973653a2055524920717565727920666f722060008201527f6e6f6e6578697374656e7420746f6b656e000000000000000000000000000000602082015250565b60006122526031836114f0565b915061225d826121f6565b604082019050919050565b6000602082019050818103600083015261228181612245565b9050919050565b600061229b612296846117a7565b61178c565b9050828152602081018484840111156122b7576122b6611727565b5b6122c2848285611501565b509392505050565b600082601f8301126122df576122de611722565b5b81516122ef848260208601612288565b91505092915050565b60006020828403121561230e5761230d61144e565b5b600082015167ffffffffffffffff81111561232c5761232b611453565b5b612338848285016122ca565b91505092915050565b600081905092915050565b6000612357826114e5565b6123618185612341565b9350612371818560208601611501565b80840191505092915050565b6000612389828561234c565b9150612395828461234c565b91508190509392505050565b7f456c6563746f72616c4d616e6167657220617574686f72206e6f74206578697360008201527f7473000000000000000000000000000000000000000000000000000000000000602082015250565b60006123fd6022836114f0565b9150612408826123a1565b604082019050919050565b6000602082019050818103600083015261242c816123f0565b9050919050565b7f456c6563746f72616c50726f6d6973653a206d696e7420746f20746865207a6560008201527f726f206164647265737300000000000000000000000000000000000000000000602082015250565b600061248f602a836114f0565b915061249a82612433565b604082019050919050565b600060208201905081810360008301526124be81612482565b9050919050565b7f456c6563746f72616c50726f6d6973653a20746f6b656e20616c72656164792060008201527f6d696e7465640000000000000000000000000000000000000000000000000000602082015250565b60006125216026836114f0565b915061252c826124c5565b604082019050919050565b6000602082019050818103600083015261255081612514565b9050919050565b600061256282611458565b915061256d83611458565b92508282019050808211156125855761258461217f565b5b92915050565b7f456c6563746f72616c50726f6d6973653a2055524920736574206f66206e6f6e60008201527f6578697374656e7420746f6b656e000000000000000000000000000000000000602082015250565b60006125e7602e836114f0565b91506125f28261258b565b604082019050919050565b60006020820190508181036000830152612616816125da565b905091905056fea264697066735822122074fefd13bbd92c4351d5f5d70416ab93861ffd3c742ff3f4c742393ee2b92ac764736f6c63430008110033",
  "linkReferences": {},
  "deployedLinkReferences": {}
}